{
	"contracts/demo.sol": {
		"FirstWeekAssignment": {
			"abi": [
				{
					"inputs": [
						{
							"internalType": "string",
							"name": "_userName",
							"type": "string"
						},
						{
							"internalType": "uint256",
							"name": "_userAge",
							"type": "uint256"
						}
					],
					"stateMutability": "nonpayable",
					"type": "constructor"
				},
				{
					"inputs": [],
					"name": "getUserAge",
					"outputs": [
						{
							"internalType": "uint256",
							"name": "",
							"type": "uint256"
						}
					],
					"stateMutability": "view",
					"type": "function"
				},
				{
					"inputs": [],
					"name": "getUserName",
					"outputs": [
						{
							"internalType": "string",
							"name": "",
							"type": "string"
						}
					],
					"stateMutability": "view",
					"type": "function"
				},
				{
					"inputs": [
						{
							"internalType": "string",
							"name": "_userName",
							"type": "string"
						}
					],
					"name": "setUserName",
					"outputs": [],
					"stateMutability": "nonpayable",
					"type": "function"
				}
			],
			"devdoc": {
				"kind": "dev",
				"methods": {},
				"version": 1
			},
			"evm": {
				"assembly": "    /* \"contracts/demo.sol\":65:721  contract FirstWeekAssignment {... */\n  mstore(0x40, 0x80)\n    /* \"contracts/demo.sol\":139:255  constructor(string memory _userName, uint _userAge){... */\n  callvalue\n  dup1\n  iszero\n  tag_1\n  jumpi\n  0x00\n  dup1\n  revert\ntag_1:\n  pop\n  mload(0x40)\n  sub(codesize, bytecodeSize)\n  dup1\n  bytecodeSize\n  dup4\n  codecopy\n  dup2\n  dup2\n  add\n  0x40\n  mstore\n  dup2\n  add\n  swap1\n  tag_2\n  swap2\n  swap1\n  tag_3\n  jump\t// in\ntag_2:\n    /* \"contracts/demo.sol\":211:220  _userName */\n  dup2\n    /* \"contracts/demo.sol\":200:208  userName */\n  0x00\n    /* \"contracts/demo.sol\":200:220  userName = _userName */\n  swap1\n  dup2\n  tag_6\n  swap2\n  swap1\n  tag_7\n  jump\t// in\ntag_6:\n  pop\n    /* \"contracts/demo.sol\":240:248  _userAge */\n  dup1\n    /* \"contracts/demo.sol\":230:237  userAge */\n  0x01\n    /* \"contracts/demo.sol\":230:248  userAge = _userAge */\n  dup2\n  swap1\n  sstore\n  pop\n    /* \"contracts/demo.sol\":139:255  constructor(string memory _userName, uint _userAge){... */\n  pop\n  pop\n    /* \"contracts/demo.sol\":65:721  contract FirstWeekAssignment {... */\n  jump(tag_8)\n    /* \"#utility.yul\":7:82   */\ntag_9:\n    /* \"#utility.yul\":40:46   */\n  0x00\n    /* \"#utility.yul\":73:75   */\n  0x40\n    /* \"#utility.yul\":67:76   */\n  mload\n    /* \"#utility.yul\":57:76   */\n  swap1\n  pop\n    /* \"#utility.yul\":7:82   */\n  swap1\n  jump\t// out\n    /* \"#utility.yul\":88:205   */\ntag_10:\n    /* \"#utility.yul\":197:198   */\n  0x00\n    /* \"#utility.yul\":194:195   */\n  dup1\n    /* \"#utility.yul\":187:199   */\n  revert\n    /* \"#utility.yul\":211:328   */\ntag_11:\n    /* \"#utility.yul\":320:321   */\n  0x00\n    /* \"#utility.yul\":317:318   */\n  dup1\n    /* \"#utility.yul\":310:322   */\n  revert\n    /* \"#utility.yul\":334:451   */\ntag_12:\n    /* \"#utility.yul\":443:444   */\n  0x00\n    /* \"#utility.yul\":440:441   */\n  dup1\n    /* \"#utility.yul\":433:445   */\n  revert\n    /* \"#utility.yul\":457:574   */\ntag_13:\n    /* \"#utility.yul\":566:567   */\n  0x00\n    /* \"#utility.yul\":563:564   */\n  dup1\n    /* \"#utility.yul\":556:568   */\n  revert\n    /* \"#utility.yul\":580:682   */\ntag_14:\n    /* \"#utility.yul\":621:627   */\n  0x00\n    /* \"#utility.yul\":672:674   */\n  0x1f\n    /* \"#utility.yul\":668:675   */\n  not\n    /* \"#utility.yul\":663:665   */\n  0x1f\n    /* \"#utility.yul\":656:661   */\n  dup4\n    /* \"#utility.yul\":652:666   */\n  add\n    /* \"#utility.yul\":648:676   */\n  and\n    /* \"#utility.yul\":638:676   */\n  swap1\n  pop\n    /* \"#utility.yul\":580:682   */\n  swap2\n  swap1\n  pop\n  jump\t// out\n    /* \"#utility.yul\":688:868   */\ntag_15:\n    /* \"#utility.yul\":736:813   */\n  0x4e487b7100000000000000000000000000000000000000000000000000000000\n    /* \"#utility.yul\":733:734   */\n  0x00\n    /* \"#utility.yul\":726:814   */\n  mstore\n    /* \"#utility.yul\":833:837   */\n  0x41\n    /* \"#utility.yul\":830:831   */\n  0x04\n    /* \"#utility.yul\":823:838   */\n  mstore\n    /* \"#utility.yul\":857:861   */\n  0x24\n    /* \"#utility.yul\":854:855   */\n  0x00\n    /* \"#utility.yul\":847:862   */\n  revert\n    /* \"#utility.yul\":874:1155   */\ntag_16:\n    /* \"#utility.yul\":957:984   */\n  tag_52\n    /* \"#utility.yul\":979:983   */\n  dup3\n    /* \"#utility.yul\":957:984   */\n  tag_14\n  jump\t// in\ntag_52:\n    /* \"#utility.yul\":949:955   */\n  dup2\n    /* \"#utility.yul\":945:985   */\n  add\n    /* \"#utility.yul\":1087:1093   */\n  dup2\n    /* \"#utility.yul\":1075:1085   */\n  dup2\n    /* \"#utility.yul\":1072:1094   */\n  lt\n    /* \"#utility.yul\":1051:1069   */\n  0xffffffffffffffff\n    /* \"#utility.yul\":1039:1049   */\n  dup3\n    /* \"#utility.yul\":1036:1070   */\n  gt\n    /* \"#utility.yul\":1033:1095   */\n  or\n    /* \"#utility.yul\":1030:1118   */\n  iszero\n  tag_53\n  jumpi\n    /* \"#utility.yul\":1098:1116   */\n  tag_54\n  tag_15\n  jump\t// in\ntag_54:\n    /* \"#utility.yul\":1030:1118   */\ntag_53:\n    /* \"#utility.yul\":1138:1148   */\n  dup1\n    /* \"#utility.yul\":1134:1136   */\n  0x40\n    /* \"#utility.yul\":1127:1149   */\n  mstore\n    /* \"#utility.yul\":917:1155   */\n  pop\n    /* \"#utility.yul\":874:1155   */\n  pop\n  pop\n  jump\t// out\n    /* \"#utility.yul\":1161:1290   */\ntag_17:\n    /* \"#utility.yul\":1195:1201   */\n  0x00\n    /* \"#utility.yul\":1222:1242   */\n  tag_56\n  tag_9\n  jump\t// in\ntag_56:\n    /* \"#utility.yul\":1212:1242   */\n  swap1\n  pop\n    /* \"#utility.yul\":1251:1284   */\n  tag_57\n    /* \"#utility.yul\":1279:1283   */\n  dup3\n    /* \"#utility.yul\":1271:1277   */\n  dup3\n    /* \"#utility.yul\":1251:1284   */\n  tag_16\n  jump\t// in\ntag_57:\n    /* \"#utility.yul\":1161:1290   */\n  swap2\n  swap1\n  pop\n  jump\t// out\n    /* \"#utility.yul\":1296:1604   */\ntag_18:\n    /* \"#utility.yul\":1358:1362   */\n  0x00\n    /* \"#utility.yul\":1448:1466   */\n  0xffffffffffffffff\n    /* \"#utility.yul\":1440:1446   */\n  dup3\n    /* \"#utility.yul\":1437:1467   */\n  gt\n    /* \"#utility.yul\":1434:1490   */\n  iszero\n  tag_59\n  jumpi\n    /* \"#utility.yul\":1470:1488   */\n  tag_60\n  tag_15\n  jump\t// in\ntag_60:\n    /* \"#utility.yul\":1434:1490   */\ntag_59:\n    /* \"#utility.yul\":1508:1537   */\n  tag_61\n    /* \"#utility.yul\":1530:1536   */\n  dup3\n    /* \"#utility.yul\":1508:1537   */\n  tag_14\n  jump\t// in\ntag_61:\n    /* \"#utility.yul\":1500:1537   */\n  swap1\n  pop\n    /* \"#utility.yul\":1592:1596   */\n  0x20\n    /* \"#utility.yul\":1586:1590   */\n  dup2\n    /* \"#utility.yul\":1582:1597   */\n  add\n    /* \"#utility.yul\":1574:1597   */\n  swap1\n  pop\n    /* \"#utility.yul\":1296:1604   */\n  swap2\n  swap1\n  pop\n  jump\t// out\n    /* \"#utility.yul\":1610:1856   */\ntag_19:\n    /* \"#utility.yul\":1691:1692   */\n  0x00\n    /* \"#utility.yul\":1701:1814   */\ntag_63:\n    /* \"#utility.yul\":1715:1721   */\n  dup4\n    /* \"#utility.yul\":1712:1713   */\n  dup2\n    /* \"#utility.yul\":1709:1722   */\n  lt\n    /* \"#utility.yul\":1701:1814   */\n  iszero\n  tag_65\n  jumpi\n    /* \"#utility.yul\":1800:1801   */\n  dup1\n    /* \"#utility.yul\":1795:1798   */\n  dup3\n    /* \"#utility.yul\":1791:1802   */\n  add\n    /* \"#utility.yul\":1785:1803   */\n  mload\n    /* \"#utility.yul\":1781:1782   */\n  dup2\n    /* \"#utility.yul\":1776:1779   */\n  dup5\n    /* \"#utility.yul\":1772:1783   */\n  add\n    /* \"#utility.yul\":1765:1804   */\n  mstore\n    /* \"#utility.yul\":1737:1739   */\n  0x20\n    /* \"#utility.yul\":1734:1735   */\n  dup2\n    /* \"#utility.yul\":1730:1740   */\n  add\n    /* \"#utility.yul\":1725:1740   */\n  swap1\n  pop\n    /* \"#utility.yul\":1701:1814   */\n  jump(tag_63)\ntag_65:\n    /* \"#utility.yul\":1848:1849   */\n  0x00\n    /* \"#utility.yul\":1839:1845   */\n  dup5\n    /* \"#utility.yul\":1834:1837   */\n  dup5\n    /* \"#utility.yul\":1830:1846   */\n  add\n    /* \"#utility.yul\":1823:1850   */\n  mstore\n    /* \"#utility.yul\":1672:1856   */\n  pop\n    /* \"#utility.yul\":1610:1856   */\n  pop\n  pop\n  pop\n  jump\t// out\n    /* \"#utility.yul\":1862:2296   */\ntag_20:\n    /* \"#utility.yul\":1951:1956   */\n  0x00\n    /* \"#utility.yul\":1976:2042   */\n  tag_67\n    /* \"#utility.yul\":1992:2041   */\n  tag_68\n    /* \"#utility.yul\":2034:2040   */\n  dup5\n    /* \"#utility.yul\":1992:2041   */\n  tag_18\n  jump\t// in\ntag_68:\n    /* \"#utility.yul\":1976:2042   */\n  tag_17\n  jump\t// in\ntag_67:\n    /* \"#utility.yul\":1967:2042   */\n  swap1\n  pop\n    /* \"#utility.yul\":2065:2071   */\n  dup3\n    /* \"#utility.yul\":2058:2063   */\n  dup2\n    /* \"#utility.yul\":2051:2072   */\n  mstore\n    /* \"#utility.yul\":2103:2107   */\n  0x20\n    /* \"#utility.yul\":2096:2101   */\n  dup2\n    /* \"#utility.yul\":2092:2108   */\n  add\n    /* \"#utility.yul\":2141:2144   */\n  dup5\n    /* \"#utility.yul\":2132:2138   */\n  dup5\n    /* \"#utility.yul\":2127:2130   */\n  dup5\n    /* \"#utility.yul\":2123:2139   */\n  add\n    /* \"#utility.yul\":2120:2145   */\n  gt\n    /* \"#utility.yul\":2117:2229   */\n  iszero\n  tag_69\n  jumpi\n    /* \"#utility.yul\":2148:2227   */\n  tag_70\n  tag_13\n  jump\t// in\ntag_70:\n    /* \"#utility.yul\":2117:2229   */\ntag_69:\n    /* \"#utility.yul\":2238:2290   */\n  tag_71\n    /* \"#utility.yul\":2283:2289   */\n  dup5\n    /* \"#utility.yul\":2278:2281   */\n  dup3\n    /* \"#utility.yul\":2273:2276   */\n  dup6\n    /* \"#utility.yul\":2238:2290   */\n  tag_19\n  jump\t// in\ntag_71:\n    /* \"#utility.yul\":1957:2296   */\n  pop\n    /* \"#utility.yul\":1862:2296   */\n  swap4\n  swap3\n  pop\n  pop\n  pop\n  jump\t// out\n    /* \"#utility.yul\":2316:2671   */\ntag_21:\n    /* \"#utility.yul\":2383:2388   */\n  0x00\n    /* \"#utility.yul\":2432:2435   */\n  dup3\n    /* \"#utility.yul\":2425:2429   */\n  0x1f\n    /* \"#utility.yul\":2417:2423   */\n  dup4\n    /* \"#utility.yul\":2413:2430   */\n  add\n    /* \"#utility.yul\":2409:2436   */\n  slt\n    /* \"#utility.yul\":2399:2521   */\n  tag_73\n  jumpi\n    /* \"#utility.yul\":2440:2519   */\n  tag_74\n  tag_12\n  jump\t// in\ntag_74:\n    /* \"#utility.yul\":2399:2521   */\ntag_73:\n    /* \"#utility.yul\":2550:2556   */\n  dup2\n    /* \"#utility.yul\":2544:2557   */\n  mload\n    /* \"#utility.yul\":2575:2665   */\n  tag_75\n    /* \"#utility.yul\":2661:2664   */\n  dup5\n    /* \"#utility.yul\":2653:2659   */\n  dup3\n    /* \"#utility.yul\":2646:2650   */\n  0x20\n    /* \"#utility.yul\":2638:2644   */\n  dup7\n    /* \"#utility.yul\":2634:2651   */\n  add\n    /* \"#utility.yul\":2575:2665   */\n  tag_20\n  jump\t// in\ntag_75:\n    /* \"#utility.yul\":2566:2665   */\n  swap2\n  pop\n    /* \"#utility.yul\":2389:2671   */\n  pop\n    /* \"#utility.yul\":2316:2671   */\n  swap3\n  swap2\n  pop\n  pop\n  jump\t// out\n    /* \"#utility.yul\":2677:2754   */\ntag_22:\n    /* \"#utility.yul\":2714:2721   */\n  0x00\n    /* \"#utility.yul\":2743:2748   */\n  dup2\n    /* \"#utility.yul\":2732:2748   */\n  swap1\n  pop\n    /* \"#utility.yul\":2677:2754   */\n  swap2\n  swap1\n  pop\n  jump\t// out\n    /* \"#utility.yul\":2760:2882   */\ntag_23:\n    /* \"#utility.yul\":2833:2857   */\n  tag_78\n    /* \"#utility.yul\":2851:2856   */\n  dup2\n    /* \"#utility.yul\":2833:2857   */\n  tag_22\n  jump\t// in\ntag_78:\n    /* \"#utility.yul\":2826:2831   */\n  dup2\n    /* \"#utility.yul\":2823:2858   */\n  eq\n    /* \"#utility.yul\":2813:2876   */\n  tag_79\n  jumpi\n    /* \"#utility.yul\":2872:2873   */\n  0x00\n    /* \"#utility.yul\":2869:2870   */\n  dup1\n    /* \"#utility.yul\":2862:2874   */\n  revert\n    /* \"#utility.yul\":2813:2876   */\ntag_79:\n    /* \"#utility.yul\":2760:2882   */\n  pop\n  jump\t// out\n    /* \"#utility.yul\":2888:3031   */\ntag_24:\n    /* \"#utility.yul\":2945:2950   */\n  0x00\n    /* \"#utility.yul\":2976:2982   */\n  dup2\n    /* \"#utility.yul\":2970:2983   */\n  mload\n    /* \"#utility.yul\":2961:2983   */\n  swap1\n  pop\n    /* \"#utility.yul\":2992:3025   */\n  tag_81\n    /* \"#utility.yul\":3019:3024   */\n  dup2\n    /* \"#utility.yul\":2992:3025   */\n  tag_23\n  jump\t// in\ntag_81:\n    /* \"#utility.yul\":2888:3031   */\n  swap3\n  swap2\n  pop\n  pop\n  jump\t// out\n    /* \"#utility.yul\":3037:3717   */\ntag_3:\n    /* \"#utility.yul\":3126:3132   */\n  0x00\n    /* \"#utility.yul\":3134:3140   */\n  dup1\n    /* \"#utility.yul\":3183:3185   */\n  0x40\n    /* \"#utility.yul\":3171:3180   */\n  dup4\n    /* \"#utility.yul\":3162:3169   */\n  dup6\n    /* \"#utility.yul\":3158:3181   */\n  sub\n    /* \"#utility.yul\":3154:3186   */\n  slt\n    /* \"#utility.yul\":3151:3270   */\n  iszero\n  tag_83\n  jumpi\n    /* \"#utility.yul\":3189:3268   */\n  tag_84\n  tag_10\n  jump\t// in\ntag_84:\n    /* \"#utility.yul\":3151:3270   */\ntag_83:\n    /* \"#utility.yul\":3330:3331   */\n  0x00\n    /* \"#utility.yul\":3319:3328   */\n  dup4\n    /* \"#utility.yul\":3315:3332   */\n  add\n    /* \"#utility.yul\":3309:3333   */\n  mload\n    /* \"#utility.yul\":3360:3378   */\n  0xffffffffffffffff\n    /* \"#utility.yul\":3352:3358   */\n  dup2\n    /* \"#utility.yul\":3349:3379   */\n  gt\n    /* \"#utility.yul\":3346:3463   */\n  iszero\n  tag_85\n  jumpi\n    /* \"#utility.yul\":3382:3461   */\n  tag_86\n  tag_11\n  jump\t// in\ntag_86:\n    /* \"#utility.yul\":3346:3463   */\ntag_85:\n    /* \"#utility.yul\":3487:3561   */\n  tag_87\n    /* \"#utility.yul\":3553:3560   */\n  dup6\n    /* \"#utility.yul\":3544:3550   */\n  dup3\n    /* \"#utility.yul\":3533:3542   */\n  dup7\n    /* \"#utility.yul\":3529:3551   */\n  add\n    /* \"#utility.yul\":3487:3561   */\n  tag_21\n  jump\t// in\ntag_87:\n    /* \"#utility.yul\":3477:3561   */\n  swap3\n  pop\n    /* \"#utility.yul\":3280:3571   */\n  pop\n    /* \"#utility.yul\":3610:3612   */\n  0x20\n    /* \"#utility.yul\":3636:3700   */\n  tag_88\n    /* \"#utility.yul\":3692:3699   */\n  dup6\n    /* \"#utility.yul\":3683:3689   */\n  dup3\n    /* \"#utility.yul\":3672:3681   */\n  dup7\n    /* \"#utility.yul\":3668:3690   */\n  add\n    /* \"#utility.yul\":3636:3700   */\n  tag_24\n  jump\t// in\ntag_88:\n    /* \"#utility.yul\":3626:3700   */\n  swap2\n  pop\n    /* \"#utility.yul\":3581:3710   */\n  pop\n    /* \"#utility.yul\":3037:3717   */\n  swap3\n  pop\n  swap3\n  swap1\n  pop\n  jump\t// out\n    /* \"#utility.yul\":3723:3822   */\ntag_25:\n    /* \"#utility.yul\":3775:3781   */\n  0x00\n    /* \"#utility.yul\":3809:3814   */\n  dup2\n    /* \"#utility.yul\":3803:3815   */\n  mload\n    /* \"#utility.yul\":3793:3815   */\n  swap1\n  pop\n    /* \"#utility.yul\":3723:3822   */\n  swap2\n  swap1\n  pop\n  jump\t// out\n    /* \"#utility.yul\":3828:4008   */\ntag_26:\n    /* \"#utility.yul\":3876:3953   */\n  0x4e487b7100000000000000000000000000000000000000000000000000000000\n    /* \"#utility.yul\":3873:3874   */\n  0x00\n    /* \"#utility.yul\":3866:3954   */\n  mstore\n    /* \"#utility.yul\":3973:3977   */\n  0x22\n    /* \"#utility.yul\":3970:3971   */\n  0x04\n    /* \"#utility.yul\":3963:3978   */\n  mstore\n    /* \"#utility.yul\":3997:4001   */\n  0x24\n    /* \"#utility.yul\":3994:3995   */\n  0x00\n    /* \"#utility.yul\":3987:4002   */\n  revert\n    /* \"#utility.yul\":4014:4334   */\ntag_27:\n    /* \"#utility.yul\":4058:4064   */\n  0x00\n    /* \"#utility.yul\":4095:4096   */\n  0x02\n    /* \"#utility.yul\":4089:4093   */\n  dup3\n    /* \"#utility.yul\":4085:4097   */\n  div\n    /* \"#utility.yul\":4075:4097   */\n  swap1\n  pop\n    /* \"#utility.yul\":4142:4143   */\n  0x01\n    /* \"#utility.yul\":4136:4140   */\n  dup3\n    /* \"#utility.yul\":4132:4144   */\n  and\n    /* \"#utility.yul\":4163:4181   */\n  dup1\n    /* \"#utility.yul\":4153:4234   */\n  tag_92\n  jumpi\n    /* \"#utility.yul\":4219:4223   */\n  0x7f\n    /* \"#utility.yul\":4211:4217   */\n  dup3\n    /* \"#utility.yul\":4207:4224   */\n  and\n    /* \"#utility.yul\":4197:4224   */\n  swap2\n  pop\n    /* \"#utility.yul\":4153:4234   */\ntag_92:\n    /* \"#utility.yul\":4281:4283   */\n  0x20\n    /* \"#utility.yul\":4273:4279   */\n  dup3\n    /* \"#utility.yul\":4270:4284   */\n  lt\n    /* \"#utility.yul\":4250:4268   */\n  dup2\n    /* \"#utility.yul\":4247:4285   */\n  sub\n    /* \"#utility.yul\":4244:4328   */\n  tag_93\n  jumpi\n    /* \"#utility.yul\":4300:4318   */\n  tag_94\n  tag_26\n  jump\t// in\ntag_94:\n    /* \"#utility.yul\":4244:4328   */\ntag_93:\n    /* \"#utility.yul\":4065:4334   */\n  pop\n    /* \"#utility.yul\":4014:4334   */\n  swap2\n  swap1\n  pop\n  jump\t// out\n    /* \"#utility.yul\":4340:4481   */\ntag_28:\n    /* \"#utility.yul\":4389:4393   */\n  0x00\n    /* \"#utility.yul\":4412:4415   */\n  dup2\n    /* \"#utility.yul\":4404:4415   */\n  swap1\n  pop\n    /* \"#utility.yul\":4435:4438   */\n  dup2\n    /* \"#utility.yul\":4432:4433   */\n  0x00\n    /* \"#utility.yul\":4425:4439   */\n  mstore\n    /* \"#utility.yul\":4469:4473   */\n  0x20\n    /* \"#utility.yul\":4466:4467   */\n  0x00\n    /* \"#utility.yul\":4456:4474   */\n  keccak256\n    /* \"#utility.yul\":4448:4474   */\n  swap1\n  pop\n    /* \"#utility.yul\":4340:4481   */\n  swap2\n  swap1\n  pop\n  jump\t// out\n    /* \"#utility.yul\":4487:4580   */\ntag_29:\n    /* \"#utility.yul\":4524:4530   */\n  0x00\n    /* \"#utility.yul\":4571:4573   */\n  0x20\n    /* \"#utility.yul\":4566:4568   */\n  0x1f\n    /* \"#utility.yul\":4559:4564   */\n  dup4\n    /* \"#utility.yul\":4555:4569   */\n  add\n    /* \"#utility.yul\":4551:4574   */\n  div\n    /* \"#utility.yul\":4541:4574   */\n  swap1\n  pop\n    /* \"#utility.yul\":4487:4580   */\n  swap2\n  swap1\n  pop\n  jump\t// out\n    /* \"#utility.yul\":4586:4693   */\ntag_30:\n    /* \"#utility.yul\":4630:4638   */\n  0x00\n    /* \"#utility.yul\":4680:4685   */\n  dup3\n    /* \"#utility.yul\":4674:4678   */\n  dup3\n    /* \"#utility.yul\":4670:4686   */\n  shl\n    /* \"#utility.yul\":4649:4686   */\n  swap1\n  pop\n    /* \"#utility.yul\":4586:4693   */\n  swap3\n  swap2\n  pop\n  pop\n  jump\t// out\n    /* \"#utility.yul\":4699:5092   */\ntag_31:\n    /* \"#utility.yul\":4768:4774   */\n  0x00\n    /* \"#utility.yul\":4818:4819   */\n  0x08\n    /* \"#utility.yul\":4806:4816   */\n  dup4\n    /* \"#utility.yul\":4802:4820   */\n  mul\n    /* \"#utility.yul\":4841:4938   */\n  tag_99\n    /* \"#utility.yul\":4871:4937   */\n  0xffffffffffffffffffffffffffffffffffffffffffffffffffffffffffffffff\n    /* \"#utility.yul\":4860:4869   */\n  dup3\n    /* \"#utility.yul\":4841:4938   */\n  tag_30\n  jump\t// in\ntag_99:\n    /* \"#utility.yul\":4959:4998   */\n  tag_100\n    /* \"#utility.yul\":4989:4997   */\n  dup7\n    /* \"#utility.yul\":4978:4987   */\n  dup4\n    /* \"#utility.yul\":4959:4998   */\n  tag_30\n  jump\t// in\ntag_100:\n    /* \"#utility.yul\":4947:4998   */\n  swap6\n  pop\n    /* \"#utility.yul\":5031:5035   */\n  dup1\n    /* \"#utility.yul\":5027:5036   */\n  not\n    /* \"#utility.yul\":5020:5025   */\n  dup5\n    /* \"#utility.yul\":5016:5037   */\n  and\n    /* \"#utility.yul\":5007:5037   */\n  swap4\n  pop\n    /* \"#utility.yul\":5080:5084   */\n  dup1\n    /* \"#utility.yul\":5070:5078   */\n  dup7\n    /* \"#utility.yul\":5066:5085   */\n  and\n    /* \"#utility.yul\":5059:5064   */\n  dup5\n    /* \"#utility.yul\":5056:5086   */\n  or\n    /* \"#utility.yul\":5046:5086   */\n  swap3\n  pop\n    /* \"#utility.yul\":4775:5092   */\n  pop\n  pop\n    /* \"#utility.yul\":4699:5092   */\n  swap4\n  swap3\n  pop\n  pop\n  pop\n  jump\t// out\n    /* \"#utility.yul\":5098:5158   */\ntag_32:\n    /* \"#utility.yul\":5126:5129   */\n  0x00\n    /* \"#utility.yul\":5147:5152   */\n  dup2\n    /* \"#utility.yul\":5140:5152   */\n  swap1\n  pop\n    /* \"#utility.yul\":5098:5158   */\n  swap2\n  swap1\n  pop\n  jump\t// out\n    /* \"#utility.yul\":5164:5306   */\ntag_33:\n    /* \"#utility.yul\":5214:5223   */\n  0x00\n    /* \"#utility.yul\":5247:5300   */\n  tag_103\n    /* \"#utility.yul\":5265:5299   */\n  tag_104\n    /* \"#utility.yul\":5274:5298   */\n  tag_105\n    /* \"#utility.yul\":5292:5297   */\n  dup5\n    /* \"#utility.yul\":5274:5298   */\n  tag_22\n  jump\t// in\ntag_105:\n    /* \"#utility.yul\":5265:5299   */\n  tag_32\n  jump\t// in\ntag_104:\n    /* \"#utility.yul\":5247:5300   */\n  tag_22\n  jump\t// in\ntag_103:\n    /* \"#utility.yul\":5234:5300   */\n  swap1\n  pop\n    /* \"#utility.yul\":5164:5306   */\n  swap2\n  swap1\n  pop\n  jump\t// out\n    /* \"#utility.yul\":5312:5387   */\ntag_34:\n    /* \"#utility.yul\":5355:5358   */\n  0x00\n    /* \"#utility.yul\":5376:5381   */\n  dup2\n    /* \"#utility.yul\":5369:5381   */\n  swap1\n  pop\n    /* \"#utility.yul\":5312:5387   */\n  swap2\n  swap1\n  pop\n  jump\t// out\n    /* \"#utility.yul\":5393:5662   */\ntag_35:\n    /* \"#utility.yul\":5503:5542   */\n  tag_108\n    /* \"#utility.yul\":5534:5541   */\n  dup4\n    /* \"#utility.yul\":5503:5542   */\n  tag_33\n  jump\t// in\ntag_108:\n    /* \"#utility.yul\":5564:5655   */\n  tag_109\n    /* \"#utility.yul\":5613:5654   */\n  tag_110\n    /* \"#utility.yul\":5637:5653   */\n  dup3\n    /* \"#utility.yul\":5613:5654   */\n  tag_34\n  jump\t// in\ntag_110:\n    /* \"#utility.yul\":5605:5611   */\n  dup5\n    /* \"#utility.yul\":5598:5602   */\n  dup5\n    /* \"#utility.yul\":5592:5603   */\n  sload\n    /* \"#utility.yul\":5564:5655   */\n  tag_31\n  jump\t// in\ntag_109:\n    /* \"#utility.yul\":5558:5562   */\n  dup3\n    /* \"#utility.yul\":5551:5656   */\n  sstore\n    /* \"#utility.yul\":5469:5662   */\n  pop\n    /* \"#utility.yul\":5393:5662   */\n  pop\n  pop\n  pop\n  jump\t// out\n    /* \"#utility.yul\":5668:5741   */\ntag_36:\n    /* \"#utility.yul\":5713:5716   */\n  0x00\n    /* \"#utility.yul\":5668:5741   */\n  swap1\n  jump\t// out\n    /* \"#utility.yul\":5747:5936   */\ntag_37:\n    /* \"#utility.yul\":5824:5856   */\n  tag_113\n  tag_36\n  jump\t// in\ntag_113:\n    /* \"#utility.yul\":5865:5930   */\n  tag_114\n    /* \"#utility.yul\":5923:5929   */\n  dup2\n    /* \"#utility.yul\":5915:5921   */\n  dup5\n    /* \"#utility.yul\":5909:5913   */\n  dup5\n    /* \"#utility.yul\":5865:5930   */\n  tag_35\n  jump\t// in\ntag_114:\n    /* \"#utility.yul\":5800:5936   */\n  pop\n    /* \"#utility.yul\":5747:5936   */\n  pop\n  pop\n  jump\t// out\n    /* \"#utility.yul\":5942:6128   */\ntag_38:\n    /* \"#utility.yul\":6002:6122   */\ntag_116:\n    /* \"#utility.yul\":6019:6022   */\n  dup2\n    /* \"#utility.yul\":6012:6017   */\n  dup2\n    /* \"#utility.yul\":6009:6023   */\n  lt\n    /* \"#utility.yul\":6002:6122   */\n  iszero\n  tag_118\n  jumpi\n    /* \"#utility.yul\":6073:6112   */\n  tag_119\n    /* \"#utility.yul\":6110:6111   */\n  0x00\n    /* \"#utility.yul\":6103:6108   */\n  dup3\n    /* \"#utility.yul\":6073:6112   */\n  tag_37\n  jump\t// in\ntag_119:\n    /* \"#utility.yul\":6046:6047   */\n  0x01\n    /* \"#utility.yul\":6039:6044   */\n  dup2\n    /* \"#utility.yul\":6035:6048   */\n  add\n    /* \"#utility.yul\":6026:6048   */\n  swap1\n  pop\n    /* \"#utility.yul\":6002:6122   */\n  jump(tag_116)\ntag_118:\n    /* \"#utility.yul\":5942:6128   */\n  pop\n  pop\n  jump\t// out\n    /* \"#utility.yul\":6134:6677   */\ntag_39:\n    /* \"#utility.yul\":6235:6237   */\n  0x1f\n    /* \"#utility.yul\":6230:6233   */\n  dup3\n    /* \"#utility.yul\":6227:6238   */\n  gt\n    /* \"#utility.yul\":6224:6670   */\n  iszero\n  tag_121\n  jumpi\n    /* \"#utility.yul\":6269:6307   */\n  tag_122\n    /* \"#utility.yul\":6301:6306   */\n  dup2\n    /* \"#utility.yul\":6269:6307   */\n  tag_28\n  jump\t// in\ntag_122:\n    /* \"#utility.yul\":6353:6382   */\n  tag_123\n    /* \"#utility.yul\":6371:6381   */\n  dup5\n    /* \"#utility.yul\":6353:6382   */\n  tag_29\n  jump\t// in\ntag_123:\n    /* \"#utility.yul\":6343:6351   */\n  dup2\n    /* \"#utility.yul\":6339:6383   */\n  add\n    /* \"#utility.yul\":6536:6538   */\n  0x20\n    /* \"#utility.yul\":6524:6534   */\n  dup6\n    /* \"#utility.yul\":6521:6539   */\n  lt\n    /* \"#utility.yul\":6518:6567   */\n  iszero\n  tag_124\n  jumpi\n    /* \"#utility.yul\":6557:6565   */\n  dup2\n    /* \"#utility.yul\":6542:6565   */\n  swap1\n  pop\n    /* \"#utility.yul\":6518:6567   */\ntag_124:\n    /* \"#utility.yul\":6580:6660   */\n  tag_125\n    /* \"#utility.yul\":6636:6658   */\n  tag_126\n    /* \"#utility.yul\":6654:6657   */\n  dup6\n    /* \"#utility.yul\":6636:6658   */\n  tag_29\n  jump\t// in\ntag_126:\n    /* \"#utility.yul\":6626:6634   */\n  dup4\n    /* \"#utility.yul\":6622:6659   */\n  add\n    /* \"#utility.yul\":6609:6620   */\n  dup3\n    /* \"#utility.yul\":6580:6660   */\n  tag_38\n  jump\t// in\ntag_125:\n    /* \"#utility.yul\":6239:6670   */\n  pop\n  pop\n    /* \"#utility.yul\":6224:6670   */\ntag_121:\n    /* \"#utility.yul\":6134:6677   */\n  pop\n  pop\n  pop\n  jump\t// out\n    /* \"#utility.yul\":6683:6800   */\ntag_40:\n    /* \"#utility.yul\":6737:6745   */\n  0x00\n    /* \"#utility.yul\":6787:6792   */\n  dup3\n    /* \"#utility.yul\":6781:6785   */\n  dup3\n    /* \"#utility.yul\":6777:6793   */\n  shr\n    /* \"#utility.yul\":6756:6793   */\n  swap1\n  pop\n    /* \"#utility.yul\":6683:6800   */\n  swap3\n  swap2\n  pop\n  pop\n  jump\t// out\n    /* \"#utility.yul\":6806:6975   */\ntag_41:\n    /* \"#utility.yul\":6850:6856   */\n  0x00\n    /* \"#utility.yul\":6883:6934   */\n  tag_129\n    /* \"#utility.yul\":6931:6932   */\n  0x00\n    /* \"#utility.yul\":6927:6933   */\n  not\n    /* \"#utility.yul\":6919:6924   */\n  dup5\n    /* \"#utility.yul\":6916:6917   */\n  0x08\n    /* \"#utility.yul\":6912:6925   */\n  mul\n    /* \"#utility.yul\":6883:6934   */\n  tag_40\n  jump\t// in\ntag_129:\n    /* \"#utility.yul\":6879:6935   */\n  not\n    /* \"#utility.yul\":6964:6968   */\n  dup1\n    /* \"#utility.yul\":6958:6962   */\n  dup4\n    /* \"#utility.yul\":6954:6969   */\n  and\n    /* \"#utility.yul\":6944:6969   */\n  swap2\n  pop\n    /* \"#utility.yul\":6857:6975   */\n  pop\n    /* \"#utility.yul\":6806:6975   */\n  swap3\n  swap2\n  pop\n  pop\n  jump\t// out\n    /* \"#utility.yul\":6980:7275   */\ntag_42:\n    /* \"#utility.yul\":7056:7060   */\n  0x00\n    /* \"#utility.yul\":7202:7231   */\n  tag_131\n    /* \"#utility.yul\":7227:7230   */\n  dup4\n    /* \"#utility.yul\":7221:7225   */\n  dup4\n    /* \"#utility.yul\":7202:7231   */\n  tag_41\n  jump\t// in\ntag_131:\n    /* \"#utility.yul\":7194:7231   */\n  swap2\n  pop\n    /* \"#utility.yul\":7264:7267   */\n  dup3\n    /* \"#utility.yul\":7261:7262   */\n  0x02\n    /* \"#utility.yul\":7257:7268   */\n  mul\n    /* \"#utility.yul\":7251:7255   */\n  dup3\n    /* \"#utility.yul\":7248:7269   */\n  or\n    /* \"#utility.yul\":7240:7269   */\n  swap1\n  pop\n    /* \"#utility.yul\":6980:7275   */\n  swap3\n  swap2\n  pop\n  pop\n  jump\t// out\n    /* \"#utility.yul\":7280:8675   */\ntag_7:\n    /* \"#utility.yul\":7397:7434   */\n  tag_133\n    /* \"#utility.yul\":7430:7433   */\n  dup3\n    /* \"#utility.yul\":7397:7434   */\n  tag_25\n  jump\t// in\ntag_133:\n    /* \"#utility.yul\":7499:7517   */\n  0xffffffffffffffff\n    /* \"#utility.yul\":7491:7497   */\n  dup2\n    /* \"#utility.yul\":7488:7518   */\n  gt\n    /* \"#utility.yul\":7485:7541   */\n  iszero\n  tag_134\n  jumpi\n    /* \"#utility.yul\":7521:7539   */\n  tag_135\n  tag_15\n  jump\t// in\ntag_135:\n    /* \"#utility.yul\":7485:7541   */\ntag_134:\n    /* \"#utility.yul\":7565:7603   */\n  tag_136\n    /* \"#utility.yul\":7597:7601   */\n  dup3\n    /* \"#utility.yul\":7591:7602   */\n  sload\n    /* \"#utility.yul\":7565:7603   */\n  tag_27\n  jump\t// in\ntag_136:\n    /* \"#utility.yul\":7650:7717   */\n  tag_137\n    /* \"#utility.yul\":7710:7716   */\n  dup3\n    /* \"#utility.yul\":7702:7708   */\n  dup3\n    /* \"#utility.yul\":7696:7700   */\n  dup6\n    /* \"#utility.yul\":7650:7717   */\n  tag_39\n  jump\t// in\ntag_137:\n    /* \"#utility.yul\":7744:7745   */\n  0x00\n    /* \"#utility.yul\":7768:7772   */\n  0x20\n    /* \"#utility.yul\":7755:7772   */\n  swap1\n  pop\n    /* \"#utility.yul\":7800:7802   */\n  0x1f\n    /* \"#utility.yul\":7792:7798   */\n  dup4\n    /* \"#utility.yul\":7789:7803   */\n  gt\n    /* \"#utility.yul\":7817:7818   */\n  0x01\n    /* \"#utility.yul\":7812:8430   */\n  dup2\n  eq\n  tag_139\n  jumpi\n    /* \"#utility.yul\":8474:8475   */\n  0x00\n    /* \"#utility.yul\":8491:8497   */\n  dup5\n    /* \"#utility.yul\":8488:8565   */\n  iszero\n  tag_140\n  jumpi\n    /* \"#utility.yul\":8540:8549   */\n  dup3\n    /* \"#utility.yul\":8535:8538   */\n  dup8\n    /* \"#utility.yul\":8531:8550   */\n  add\n    /* \"#utility.yul\":8525:8551   */\n  mload\n    /* \"#utility.yul\":8516:8551   */\n  swap1\n  pop\n    /* \"#utility.yul\":8488:8565   */\ntag_140:\n    /* \"#utility.yul\":8591:8658   */\n  tag_141\n    /* \"#utility.yul\":8651:8657   */\n  dup6\n    /* \"#utility.yul\":8644:8649   */\n  dup3\n    /* \"#utility.yul\":8591:8658   */\n  tag_42\n  jump\t// in\ntag_141:\n    /* \"#utility.yul\":8585:8589   */\n  dup7\n    /* \"#utility.yul\":8578:8659   */\n  sstore\n    /* \"#utility.yul\":8447:8669   */\n  pop\n    /* \"#utility.yul\":7782:8669   */\n  jump(tag_138)\n    /* \"#utility.yul\":7812:8430   */\ntag_139:\n    /* \"#utility.yul\":7864:7868   */\n  0x1f\n    /* \"#utility.yul\":7860:7869   */\n  not\n    /* \"#utility.yul\":7852:7858   */\n  dup5\n    /* \"#utility.yul\":7848:7870   */\n  and\n    /* \"#utility.yul\":7898:7935   */\n  tag_142\n    /* \"#utility.yul\":7930:7934   */\n  dup7\n    /* \"#utility.yul\":7898:7935   */\n  tag_28\n  jump\t// in\ntag_142:\n    /* \"#utility.yul\":7957:7958   */\n  0x00\n    /* \"#utility.yul\":7971:8179   */\ntag_143:\n    /* \"#utility.yul\":7985:7992   */\n  dup3\n    /* \"#utility.yul\":7982:7983   */\n  dup2\n    /* \"#utility.yul\":7979:7993   */\n  lt\n    /* \"#utility.yul\":7971:8179   */\n  iszero\n  tag_145\n  jumpi\n    /* \"#utility.yul\":8064:8073   */\n  dup5\n    /* \"#utility.yul\":8059:8062   */\n  dup10\n    /* \"#utility.yul\":8055:8074   */\n  add\n    /* \"#utility.yul\":8049:8075   */\n  mload\n    /* \"#utility.yul\":8041:8047   */\n  dup3\n    /* \"#utility.yul\":8034:8076   */\n  sstore\n    /* \"#utility.yul\":8115:8116   */\n  0x01\n    /* \"#utility.yul\":8107:8113   */\n  dup3\n    /* \"#utility.yul\":8103:8117   */\n  add\n    /* \"#utility.yul\":8093:8117   */\n  swap2\n  pop\n    /* \"#utility.yul\":8162:8164   */\n  0x20\n    /* \"#utility.yul\":8151:8160   */\n  dup6\n    /* \"#utility.yul\":8147:8165   */\n  add\n    /* \"#utility.yul\":8134:8165   */\n  swap5\n  pop\n    /* \"#utility.yul\":8008:8012   */\n  0x20\n    /* \"#utility.yul\":8005:8006   */\n  dup2\n    /* \"#utility.yul\":8001:8013   */\n  add\n    /* \"#utility.yul\":7996:8013   */\n  swap1\n  pop\n    /* \"#utility.yul\":7971:8179   */\n  jump(tag_143)\ntag_145:\n    /* \"#utility.yul\":8207:8213   */\n  dup7\n    /* \"#utility.yul\":8198:8205   */\n  dup4\n    /* \"#utility.yul\":8195:8214   */\n  lt\n    /* \"#utility.yul\":8192:8371   */\n  iszero\n  tag_146\n  jumpi\n    /* \"#utility.yul\":8265:8274   */\n  dup5\n    /* \"#utility.yul\":8260:8263   */\n  dup10\n    /* \"#utility.yul\":8256:8275   */\n  add\n    /* \"#utility.yul\":8250:8276   */\n  mload\n    /* \"#utility.yul\":8308:8356   */\n  tag_147\n    /* \"#utility.yul\":8350:8354   */\n  0x1f\n    /* \"#utility.yul\":8342:8348   */\n  dup10\n    /* \"#utility.yul\":8338:8355   */\n  and\n    /* \"#utility.yul\":8327:8336   */\n  dup3\n    /* \"#utility.yul\":8308:8356   */\n  tag_41\n  jump\t// in\ntag_147:\n    /* \"#utility.yul\":8300:8306   */\n  dup4\n    /* \"#utility.yul\":8293:8357   */\n  sstore\n    /* \"#utility.yul\":8215:8371   */\n  pop\n    /* \"#utility.yul\":8192:8371   */\ntag_146:\n    /* \"#utility.yul\":8417:8418   */\n  0x01\n    /* \"#utility.yul\":8413:8414   */\n  0x02\n    /* \"#utility.yul\":8405:8411   */\n  dup9\n    /* \"#utility.yul\":8401:8415   */\n  mul\n    /* \"#utility.yul\":8397:8419   */\n  add\n    /* \"#utility.yul\":8391:8395   */\n  dup9\n    /* \"#utility.yul\":8384:8420   */\n  sstore\n    /* \"#utility.yul\":7819:8430   */\n  pop\n  pop\n  pop\n    /* \"#utility.yul\":7782:8669   */\ntag_138:\n  pop\n    /* \"#utility.yul\":7372:8675   */\n  pop\n  pop\n  pop\n    /* \"#utility.yul\":7280:8675   */\n  pop\n  pop\n  jump\t// out\n    /* \"contracts/demo.sol\":65:721  contract FirstWeekAssignment {... */\ntag_8:\n  dataSize(sub_0)\n  dup1\n  dataOffset(sub_0)\n  0x00\n  codecopy\n  0x00\n  return\nstop\n\nsub_0: assembly {\n        /* \"contracts/demo.sol\":65:721  contract FirstWeekAssignment {... */\n      mstore(0x40, 0x80)\n      callvalue\n      dup1\n      iszero\n      tag_1\n      jumpi\n      0x00\n      dup1\n      revert\n    tag_1:\n      pop\n      jumpi(tag_2, lt(calldatasize, 0x04))\n      shr(0xe0, calldataload(0x00))\n      dup1\n      0x12958f1c\n      eq\n      tag_3\n      jumpi\n      dup1\n      0x2b5914fe\n      eq\n      tag_4\n      jumpi\n      dup1\n      0x7cae3d4d\n      eq\n      tag_5\n      jumpi\n    tag_2:\n      0x00\n      dup1\n      revert\n        /* \"contracts/demo.sol\":261:352  function getUserName() public  view returns(string memory) {... */\n    tag_3:\n      tag_6\n      tag_7\n      jump\t// in\n    tag_6:\n      mload(0x40)\n      tag_8\n      swap2\n      swap1\n      tag_9\n      jump\t// in\n    tag_8:\n      mload(0x40)\n      dup1\n      swap2\n      sub\n      swap1\n      return\n        /* \"contracts/demo.sol\":451:541  function setUserName(string memory _userName) public {... */\n    tag_4:\n      tag_10\n      0x04\n      dup1\n      calldatasize\n      sub\n      dup2\n      add\n      swap1\n      tag_11\n      swap2\n      swap1\n      tag_12\n      jump\t// in\n    tag_11:\n      tag_13\n      jump\t// in\n    tag_10:\n      stop\n        /* \"contracts/demo.sol\":358:445  function getUserAge() external view returns (uint ) {... */\n    tag_5:\n      tag_14\n      tag_15\n      jump\t// in\n    tag_14:\n      mload(0x40)\n      tag_16\n      swap2\n      swap1\n      tag_17\n      jump\t// in\n    tag_16:\n      mload(0x40)\n      dup1\n      swap2\n      sub\n      swap1\n      return\n        /* \"contracts/demo.sol\":261:352  function getUserName() public  view returns(string memory) {... */\n    tag_7:\n        /* \"contracts/demo.sol\":305:318  string memory */\n      0x60\n        /* \"contracts/demo.sol\":337:345  userName */\n      0x00\n        /* \"contracts/demo.sol\":330:345  return userName */\n      dup1\n      sload\n      tag_19\n      swap1\n      tag_20\n      jump\t// in\n    tag_19:\n      dup1\n      0x1f\n      add\n      0x20\n      dup1\n      swap2\n      div\n      mul\n      0x20\n      add\n      mload(0x40)\n      swap1\n      dup2\n      add\n      0x40\n      mstore\n      dup1\n      swap3\n      swap2\n      swap1\n      dup2\n      dup2\n      mstore\n      0x20\n      add\n      dup3\n      dup1\n      sload\n      tag_21\n      swap1\n      tag_20\n      jump\t// in\n    tag_21:\n      dup1\n      iszero\n      tag_22\n      jumpi\n      dup1\n      0x1f\n      lt\n      tag_23\n      jumpi\n      0x0100\n      dup1\n      dup4\n      sload\n      div\n      mul\n      dup4\n      mstore\n      swap2\n      0x20\n      add\n      swap2\n      jump(tag_22)\n    tag_23:\n      dup3\n      add\n      swap2\n      swap1\n      0x00\n      mstore\n      keccak256(0x00, 0x20)\n      swap1\n    tag_24:\n      dup2\n      sload\n      dup2\n      mstore\n      swap1\n      0x01\n      add\n      swap1\n      0x20\n      add\n      dup1\n      dup4\n      gt\n      tag_24\n      jumpi\n      dup3\n      swap1\n      sub\n      0x1f\n      and\n      dup3\n      add\n      swap2\n    tag_22:\n      pop\n      pop\n      pop\n      pop\n      pop\n      swap1\n      pop\n        /* \"contracts/demo.sol\":261:352  function getUserName() public  view returns(string memory) {... */\n      swap1\n      jump\t// out\n        /* \"contracts/demo.sol\":451:541  function setUserName(string memory _userName) public {... */\n    tag_13:\n        /* \"contracts/demo.sol\":525:534  _userName */\n      dup1\n        /* \"contracts/demo.sol\":514:522  userName */\n      0x00\n        /* \"contracts/demo.sol\":514:534  userName = _userName */\n      swap1\n      dup2\n      tag_26\n      swap2\n      swap1\n      tag_27\n      jump\t// in\n    tag_26:\n      pop\n        /* \"contracts/demo.sol\":451:541  function setUserName(string memory _userName) public {... */\n      pop\n      jump\t// out\n        /* \"contracts/demo.sol\":358:445  function getUserAge() external view returns (uint ) {... */\n    tag_15:\n        /* \"contracts/demo.sol\":403:407  uint */\n      0x00\n        /* \"contracts/demo.sol\":437:438  2 */\n      0x02\n        /* \"contracts/demo.sol\":427:434  userAge */\n      sload(0x01)\n        /* \"contracts/demo.sol\":427:438  userAge * 2 */\n      tag_29\n      swap2\n      swap1\n      tag_30\n      jump\t// in\n    tag_29:\n        /* \"contracts/demo.sol\":420:438  return userAge * 2 */\n      swap1\n      pop\n        /* \"contracts/demo.sol\":358:445  function getUserAge() external view returns (uint ) {... */\n      swap1\n      jump\t// out\n        /* \"#utility.yul\":7:106   */\n    tag_31:\n        /* \"#utility.yul\":59:65   */\n      0x00\n        /* \"#utility.yul\":93:98   */\n      dup2\n        /* \"#utility.yul\":87:99   */\n      mload\n        /* \"#utility.yul\":77:99   */\n      swap1\n      pop\n        /* \"#utility.yul\":7:106   */\n      swap2\n      swap1\n      pop\n      jump\t// out\n        /* \"#utility.yul\":112:281   */\n    tag_32:\n        /* \"#utility.yul\":196:207   */\n      0x00\n        /* \"#utility.yul\":230:236   */\n      dup3\n        /* \"#utility.yul\":225:228   */\n      dup3\n        /* \"#utility.yul\":218:237   */\n      mstore\n        /* \"#utility.yul\":270:274   */\n      0x20\n        /* \"#utility.yul\":265:268   */\n      dup3\n        /* \"#utility.yul\":261:275   */\n      add\n        /* \"#utility.yul\":246:275   */\n      swap1\n      pop\n        /* \"#utility.yul\":112:281   */\n      swap3\n      swap2\n      pop\n      pop\n      jump\t// out\n        /* \"#utility.yul\":287:533   */\n    tag_33:\n        /* \"#utility.yul\":368:369   */\n      0x00\n        /* \"#utility.yul\":378:491   */\n    tag_71:\n        /* \"#utility.yul\":392:398   */\n      dup4\n        /* \"#utility.yul\":389:390   */\n      dup2\n        /* \"#utility.yul\":386:399   */\n      lt\n        /* \"#utility.yul\":378:491   */\n      iszero\n      tag_73\n      jumpi\n        /* \"#utility.yul\":477:478   */\n      dup1\n        /* \"#utility.yul\":472:475   */\n      dup3\n        /* \"#utility.yul\":468:479   */\n      add\n        /* \"#utility.yul\":462:480   */\n      mload\n        /* \"#utility.yul\":458:459   */\n      dup2\n        /* \"#utility.yul\":453:456   */\n      dup5\n        /* \"#utility.yul\":449:460   */\n      add\n        /* \"#utility.yul\":442:481   */\n      mstore\n        /* \"#utility.yul\":414:416   */\n      0x20\n        /* \"#utility.yul\":411:412   */\n      dup2\n        /* \"#utility.yul\":407:417   */\n      add\n        /* \"#utility.yul\":402:417   */\n      swap1\n      pop\n        /* \"#utility.yul\":378:491   */\n      jump(tag_71)\n    tag_73:\n        /* \"#utility.yul\":525:526   */\n      0x00\n        /* \"#utility.yul\":516:522   */\n      dup5\n        /* \"#utility.yul\":511:514   */\n      dup5\n        /* \"#utility.yul\":507:523   */\n      add\n        /* \"#utility.yul\":500:527   */\n      mstore\n        /* \"#utility.yul\":349:533   */\n      pop\n        /* \"#utility.yul\":287:533   */\n      pop\n      pop\n      pop\n      jump\t// out\n        /* \"#utility.yul\":539:641   */\n    tag_34:\n        /* \"#utility.yul\":580:586   */\n      0x00\n        /* \"#utility.yul\":631:633   */\n      0x1f\n        /* \"#utility.yul\":627:634   */\n      not\n        /* \"#utility.yul\":622:624   */\n      0x1f\n        /* \"#utility.yul\":615:620   */\n      dup4\n        /* \"#utility.yul\":611:625   */\n      add\n        /* \"#utility.yul\":607:635   */\n      and\n        /* \"#utility.yul\":597:635   */\n      swap1\n      pop\n        /* \"#utility.yul\":539:641   */\n      swap2\n      swap1\n      pop\n      jump\t// out\n        /* \"#utility.yul\":647:1024   */\n    tag_35:\n        /* \"#utility.yul\":735:738   */\n      0x00\n        /* \"#utility.yul\":763:802   */\n      tag_76\n        /* \"#utility.yul\":796:801   */\n      dup3\n        /* \"#utility.yul\":763:802   */\n      tag_31\n      jump\t// in\n    tag_76:\n        /* \"#utility.yul\":818:889   */\n      tag_77\n        /* \"#utility.yul\":882:888   */\n      dup2\n        /* \"#utility.yul\":877:880   */\n      dup6\n        /* \"#utility.yul\":818:889   */\n      tag_32\n      jump\t// in\n    tag_77:\n        /* \"#utility.yul\":811:889   */\n      swap4\n      pop\n        /* \"#utility.yul\":898:963   */\n      tag_78\n        /* \"#utility.yul\":956:962   */\n      dup2\n        /* \"#utility.yul\":951:954   */\n      dup6\n        /* \"#utility.yul\":944:948   */\n      0x20\n        /* \"#utility.yul\":937:942   */\n      dup7\n        /* \"#utility.yul\":933:949   */\n      add\n        /* \"#utility.yul\":898:963   */\n      tag_33\n      jump\t// in\n    tag_78:\n        /* \"#utility.yul\":988:1017   */\n      tag_79\n        /* \"#utility.yul\":1010:1016   */\n      dup2\n        /* \"#utility.yul\":988:1017   */\n      tag_34\n      jump\t// in\n    tag_79:\n        /* \"#utility.yul\":983:986   */\n      dup5\n        /* \"#utility.yul\":979:1018   */\n      add\n        /* \"#utility.yul\":972:1018   */\n      swap2\n      pop\n        /* \"#utility.yul\":739:1024   */\n      pop\n        /* \"#utility.yul\":647:1024   */\n      swap3\n      swap2\n      pop\n      pop\n      jump\t// out\n        /* \"#utility.yul\":1030:1343   */\n    tag_9:\n        /* \"#utility.yul\":1143:1147   */\n      0x00\n        /* \"#utility.yul\":1181:1183   */\n      0x20\n        /* \"#utility.yul\":1170:1179   */\n      dup3\n        /* \"#utility.yul\":1166:1184   */\n      add\n        /* \"#utility.yul\":1158:1184   */\n      swap1\n      pop\n        /* \"#utility.yul\":1230:1239   */\n      dup2\n        /* \"#utility.yul\":1224:1228   */\n      dup2\n        /* \"#utility.yul\":1220:1240   */\n      sub\n        /* \"#utility.yul\":1216:1217   */\n      0x00\n        /* \"#utility.yul\":1205:1214   */\n      dup4\n        /* \"#utility.yul\":1201:1218   */\n      add\n        /* \"#utility.yul\":1194:1241   */\n      mstore\n        /* \"#utility.yul\":1258:1336   */\n      tag_81\n        /* \"#utility.yul\":1331:1335   */\n      dup2\n        /* \"#utility.yul\":1322:1328   */\n      dup5\n        /* \"#utility.yul\":1258:1336   */\n      tag_35\n      jump\t// in\n    tag_81:\n        /* \"#utility.yul\":1250:1336   */\n      swap1\n      pop\n        /* \"#utility.yul\":1030:1343   */\n      swap3\n      swap2\n      pop\n      pop\n      jump\t// out\n        /* \"#utility.yul\":1349:1424   */\n    tag_36:\n        /* \"#utility.yul\":1382:1388   */\n      0x00\n        /* \"#utility.yul\":1415:1417   */\n      0x40\n        /* \"#utility.yul\":1409:1418   */\n      mload\n        /* \"#utility.yul\":1399:1418   */\n      swap1\n      pop\n        /* \"#utility.yul\":1349:1424   */\n      swap1\n      jump\t// out\n        /* \"#utility.yul\":1430:1547   */\n    tag_37:\n        /* \"#utility.yul\":1539:1540   */\n      0x00\n        /* \"#utility.yul\":1536:1537   */\n      dup1\n        /* \"#utility.yul\":1529:1541   */\n      revert\n        /* \"#utility.yul\":1553:1670   */\n    tag_38:\n        /* \"#utility.yul\":1662:1663   */\n      0x00\n        /* \"#utility.yul\":1659:1660   */\n      dup1\n        /* \"#utility.yul\":1652:1664   */\n      revert\n        /* \"#utility.yul\":1676:1793   */\n    tag_39:\n        /* \"#utility.yul\":1785:1786   */\n      0x00\n        /* \"#utility.yul\":1782:1783   */\n      dup1\n        /* \"#utility.yul\":1775:1787   */\n      revert\n        /* \"#utility.yul\":1799:1916   */\n    tag_40:\n        /* \"#utility.yul\":1908:1909   */\n      0x00\n        /* \"#utility.yul\":1905:1906   */\n      dup1\n        /* \"#utility.yul\":1898:1910   */\n      revert\n        /* \"#utility.yul\":1922:2102   */\n    tag_41:\n        /* \"#utility.yul\":1970:2047   */\n      0x4e487b7100000000000000000000000000000000000000000000000000000000\n        /* \"#utility.yul\":1967:1968   */\n      0x00\n        /* \"#utility.yul\":1960:2048   */\n      mstore\n        /* \"#utility.yul\":2067:2071   */\n      0x41\n        /* \"#utility.yul\":2064:2065   */\n      0x04\n        /* \"#utility.yul\":2057:2072   */\n      mstore\n        /* \"#utility.yul\":2091:2095   */\n      0x24\n        /* \"#utility.yul\":2088:2089   */\n      0x00\n        /* \"#utility.yul\":2081:2096   */\n      revert\n        /* \"#utility.yul\":2108:2389   */\n    tag_42:\n        /* \"#utility.yul\":2191:2218   */\n      tag_89\n        /* \"#utility.yul\":2213:2217   */\n      dup3\n        /* \"#utility.yul\":2191:2218   */\n      tag_34\n      jump\t// in\n    tag_89:\n        /* \"#utility.yul\":2183:2189   */\n      dup2\n        /* \"#utility.yul\":2179:2219   */\n      add\n        /* \"#utility.yul\":2321:2327   */\n      dup2\n        /* \"#utility.yul\":2309:2319   */\n      dup2\n        /* \"#utility.yul\":2306:2328   */\n      lt\n        /* \"#utility.yul\":2285:2303   */\n      0xffffffffffffffff\n        /* \"#utility.yul\":2273:2283   */\n      dup3\n        /* \"#utility.yul\":2270:2304   */\n      gt\n        /* \"#utility.yul\":2267:2329   */\n      or\n        /* \"#utility.yul\":2264:2352   */\n      iszero\n      tag_90\n      jumpi\n        /* \"#utility.yul\":2332:2350   */\n      tag_91\n      tag_41\n      jump\t// in\n    tag_91:\n        /* \"#utility.yul\":2264:2352   */\n    tag_90:\n        /* \"#utility.yul\":2372:2382   */\n      dup1\n        /* \"#utility.yul\":2368:2370   */\n      0x40\n        /* \"#utility.yul\":2361:2383   */\n      mstore\n        /* \"#utility.yul\":2151:2389   */\n      pop\n        /* \"#utility.yul\":2108:2389   */\n      pop\n      pop\n      jump\t// out\n        /* \"#utility.yul\":2395:2524   */\n    tag_43:\n        /* \"#utility.yul\":2429:2435   */\n      0x00\n        /* \"#utility.yul\":2456:2476   */\n      tag_93\n      tag_36\n      jump\t// in\n    tag_93:\n        /* \"#utility.yul\":2446:2476   */\n      swap1\n      pop\n        /* \"#utility.yul\":2485:2518   */\n      tag_94\n        /* \"#utility.yul\":2513:2517   */\n      dup3\n        /* \"#utility.yul\":2505:2511   */\n      dup3\n        /* \"#utility.yul\":2485:2518   */\n      tag_42\n      jump\t// in\n    tag_94:\n        /* \"#utility.yul\":2395:2524   */\n      swap2\n      swap1\n      pop\n      jump\t// out\n        /* \"#utility.yul\":2530:2838   */\n    tag_44:\n        /* \"#utility.yul\":2592:2596   */\n      0x00\n        /* \"#utility.yul\":2682:2700   */\n      0xffffffffffffffff\n        /* \"#utility.yul\":2674:2680   */\n      dup3\n        /* \"#utility.yul\":2671:2701   */\n      gt\n        /* \"#utility.yul\":2668:2724   */\n      iszero\n      tag_96\n      jumpi\n        /* \"#utility.yul\":2704:2722   */\n      tag_97\n      tag_41\n      jump\t// in\n    tag_97:\n        /* \"#utility.yul\":2668:2724   */\n    tag_96:\n        /* \"#utility.yul\":2742:2771   */\n      tag_98\n        /* \"#utility.yul\":2764:2770   */\n      dup3\n        /* \"#utility.yul\":2742:2771   */\n      tag_34\n      jump\t// in\n    tag_98:\n        /* \"#utility.yul\":2734:2771   */\n      swap1\n      pop\n        /* \"#utility.yul\":2826:2830   */\n      0x20\n        /* \"#utility.yul\":2820:2824   */\n      dup2\n        /* \"#utility.yul\":2816:2831   */\n      add\n        /* \"#utility.yul\":2808:2831   */\n      swap1\n      pop\n        /* \"#utility.yul\":2530:2838   */\n      swap2\n      swap1\n      pop\n      jump\t// out\n        /* \"#utility.yul\":2844:2990   */\n    tag_45:\n        /* \"#utility.yul\":2941:2947   */\n      dup3\n        /* \"#utility.yul\":2936:2939   */\n      dup2\n        /* \"#utility.yul\":2931:2934   */\n      dup4\n        /* \"#utility.yul\":2918:2948   */\n      calldatacopy\n        /* \"#utility.yul\":2982:2983   */\n      0x00\n        /* \"#utility.yul\":2973:2979   */\n      dup4\n        /* \"#utility.yul\":2968:2971   */\n      dup4\n        /* \"#utility.yul\":2964:2980   */\n      add\n        /* \"#utility.yul\":2957:2984   */\n      mstore\n        /* \"#utility.yul\":2844:2990   */\n      pop\n      pop\n      pop\n      jump\t// out\n        /* \"#utility.yul\":2996:3421   */\n    tag_46:\n        /* \"#utility.yul\":3074:3079   */\n      0x00\n        /* \"#utility.yul\":3099:3165   */\n      tag_101\n        /* \"#utility.yul\":3115:3164   */\n      tag_102\n        /* \"#utility.yul\":3157:3163   */\n      dup5\n        /* \"#utility.yul\":3115:3164   */\n      tag_44\n      jump\t// in\n    tag_102:\n        /* \"#utility.yul\":3099:3165   */\n      tag_43\n      jump\t// in\n    tag_101:\n        /* \"#utility.yul\":3090:3165   */\n      swap1\n      pop\n        /* \"#utility.yul\":3188:3194   */\n      dup3\n        /* \"#utility.yul\":3181:3186   */\n      dup2\n        /* \"#utility.yul\":3174:3195   */\n      mstore\n        /* \"#utility.yul\":3226:3230   */\n      0x20\n        /* \"#utility.yul\":3219:3224   */\n      dup2\n        /* \"#utility.yul\":3215:3231   */\n      add\n        /* \"#utility.yul\":3264:3267   */\n      dup5\n        /* \"#utility.yul\":3255:3261   */\n      dup5\n        /* \"#utility.yul\":3250:3253   */\n      dup5\n        /* \"#utility.yul\":3246:3262   */\n      add\n        /* \"#utility.yul\":3243:3268   */\n      gt\n        /* \"#utility.yul\":3240:3352   */\n      iszero\n      tag_103\n      jumpi\n        /* \"#utility.yul\":3271:3350   */\n      tag_104\n      tag_40\n      jump\t// in\n    tag_104:\n        /* \"#utility.yul\":3240:3352   */\n    tag_103:\n        /* \"#utility.yul\":3361:3415   */\n      tag_105\n        /* \"#utility.yul\":3408:3414   */\n      dup5\n        /* \"#utility.yul\":3403:3406   */\n      dup3\n        /* \"#utility.yul\":3398:3401   */\n      dup6\n        /* \"#utility.yul\":3361:3415   */\n      tag_45\n      jump\t// in\n    tag_105:\n        /* \"#utility.yul\":3080:3421   */\n      pop\n        /* \"#utility.yul\":2996:3421   */\n      swap4\n      swap3\n      pop\n      pop\n      pop\n      jump\t// out\n        /* \"#utility.yul\":3441:3781   */\n    tag_47:\n        /* \"#utility.yul\":3497:3502   */\n      0x00\n        /* \"#utility.yul\":3546:3549   */\n      dup3\n        /* \"#utility.yul\":3539:3543   */\n      0x1f\n        /* \"#utility.yul\":3531:3537   */\n      dup4\n        /* \"#utility.yul\":3527:3544   */\n      add\n        /* \"#utility.yul\":3523:3550   */\n      slt\n        /* \"#utility.yul\":3513:3635   */\n      tag_107\n      jumpi\n        /* \"#utility.yul\":3554:3633   */\n      tag_108\n      tag_39\n      jump\t// in\n    tag_108:\n        /* \"#utility.yul\":3513:3635   */\n    tag_107:\n        /* \"#utility.yul\":3671:3677   */\n      dup2\n        /* \"#utility.yul\":3658:3678   */\n      calldataload\n        /* \"#utility.yul\":3696:3775   */\n      tag_109\n        /* \"#utility.yul\":3771:3774   */\n      dup5\n        /* \"#utility.yul\":3763:3769   */\n      dup3\n        /* \"#utility.yul\":3756:3760   */\n      0x20\n        /* \"#utility.yul\":3748:3754   */\n      dup7\n        /* \"#utility.yul\":3744:3761   */\n      add\n        /* \"#utility.yul\":3696:3775   */\n      tag_46\n      jump\t// in\n    tag_109:\n        /* \"#utility.yul\":3687:3775   */\n      swap2\n      pop\n        /* \"#utility.yul\":3503:3781   */\n      pop\n        /* \"#utility.yul\":3441:3781   */\n      swap3\n      swap2\n      pop\n      pop\n      jump\t// out\n        /* \"#utility.yul\":3787:4296   */\n    tag_12:\n        /* \"#utility.yul\":3856:3862   */\n      0x00\n        /* \"#utility.yul\":3905:3907   */\n      0x20\n        /* \"#utility.yul\":3893:3902   */\n      dup3\n        /* \"#utility.yul\":3884:3891   */\n      dup5\n        /* \"#utility.yul\":3880:3903   */\n      sub\n        /* \"#utility.yul\":3876:3908   */\n      slt\n        /* \"#utility.yul\":3873:3992   */\n      iszero\n      tag_111\n      jumpi\n        /* \"#utility.yul\":3911:3990   */\n      tag_112\n      tag_37\n      jump\t// in\n    tag_112:\n        /* \"#utility.yul\":3873:3992   */\n    tag_111:\n        /* \"#utility.yul\":4059:4060   */\n      0x00\n        /* \"#utility.yul\":4048:4057   */\n      dup3\n        /* \"#utility.yul\":4044:4061   */\n      add\n        /* \"#utility.yul\":4031:4062   */\n      calldataload\n        /* \"#utility.yul\":4089:4107   */\n      0xffffffffffffffff\n        /* \"#utility.yul\":4081:4087   */\n      dup2\n        /* \"#utility.yul\":4078:4108   */\n      gt\n        /* \"#utility.yul\":4075:4192   */\n      iszero\n      tag_113\n      jumpi\n        /* \"#utility.yul\":4111:4190   */\n      tag_114\n      tag_38\n      jump\t// in\n    tag_114:\n        /* \"#utility.yul\":4075:4192   */\n    tag_113:\n        /* \"#utility.yul\":4216:4279   */\n      tag_115\n        /* \"#utility.yul\":4271:4278   */\n      dup5\n        /* \"#utility.yul\":4262:4268   */\n      dup3\n        /* \"#utility.yul\":4251:4260   */\n      dup6\n        /* \"#utility.yul\":4247:4269   */\n      add\n        /* \"#utility.yul\":4216:4279   */\n      tag_47\n      jump\t// in\n    tag_115:\n        /* \"#utility.yul\":4206:4279   */\n      swap2\n      pop\n        /* \"#utility.yul\":4002:4289   */\n      pop\n        /* \"#utility.yul\":3787:4296   */\n      swap3\n      swap2\n      pop\n      pop\n      jump\t// out\n        /* \"#utility.yul\":4302:4379   */\n    tag_48:\n        /* \"#utility.yul\":4339:4346   */\n      0x00\n        /* \"#utility.yul\":4368:4373   */\n      dup2\n        /* \"#utility.yul\":4357:4373   */\n      swap1\n      pop\n        /* \"#utility.yul\":4302:4379   */\n      swap2\n      swap1\n      pop\n      jump\t// out\n        /* \"#utility.yul\":4385:4503   */\n    tag_49:\n        /* \"#utility.yul\":4472:4496   */\n      tag_118\n        /* \"#utility.yul\":4490:4495   */\n      dup2\n        /* \"#utility.yul\":4472:4496   */\n      tag_48\n      jump\t// in\n    tag_118:\n        /* \"#utility.yul\":4467:4470   */\n      dup3\n        /* \"#utility.yul\":4460:4497   */\n      mstore\n        /* \"#utility.yul\":4385:4503   */\n      pop\n      pop\n      jump\t// out\n        /* \"#utility.yul\":4509:4731   */\n    tag_17:\n        /* \"#utility.yul\":4602:4606   */\n      0x00\n        /* \"#utility.yul\":4640:4642   */\n      0x20\n        /* \"#utility.yul\":4629:4638   */\n      dup3\n        /* \"#utility.yul\":4625:4643   */\n      add\n        /* \"#utility.yul\":4617:4643   */\n      swap1\n      pop\n        /* \"#utility.yul\":4653:4724   */\n      tag_120\n        /* \"#utility.yul\":4721:4722   */\n      0x00\n        /* \"#utility.yul\":4710:4719   */\n      dup4\n        /* \"#utility.yul\":4706:4723   */\n      add\n        /* \"#utility.yul\":4697:4703   */\n      dup5\n        /* \"#utility.yul\":4653:4724   */\n      tag_49\n      jump\t// in\n    tag_120:\n        /* \"#utility.yul\":4509:4731   */\n      swap3\n      swap2\n      pop\n      pop\n      jump\t// out\n        /* \"#utility.yul\":4737:4917   */\n    tag_50:\n        /* \"#utility.yul\":4785:4862   */\n      0x4e487b7100000000000000000000000000000000000000000000000000000000\n        /* \"#utility.yul\":4782:4783   */\n      0x00\n        /* \"#utility.yul\":4775:4863   */\n      mstore\n        /* \"#utility.yul\":4882:4886   */\n      0x22\n        /* \"#utility.yul\":4879:4880   */\n      0x04\n        /* \"#utility.yul\":4872:4887   */\n      mstore\n        /* \"#utility.yul\":4906:4910   */\n      0x24\n        /* \"#utility.yul\":4903:4904   */\n      0x00\n        /* \"#utility.yul\":4896:4911   */\n      revert\n        /* \"#utility.yul\":4923:5243   */\n    tag_20:\n        /* \"#utility.yul\":4967:4973   */\n      0x00\n        /* \"#utility.yul\":5004:5005   */\n      0x02\n        /* \"#utility.yul\":4998:5002   */\n      dup3\n        /* \"#utility.yul\":4994:5006   */\n      div\n        /* \"#utility.yul\":4984:5006   */\n      swap1\n      pop\n        /* \"#utility.yul\":5051:5052   */\n      0x01\n        /* \"#utility.yul\":5045:5049   */\n      dup3\n        /* \"#utility.yul\":5041:5053   */\n      and\n        /* \"#utility.yul\":5072:5090   */\n      dup1\n        /* \"#utility.yul\":5062:5143   */\n      tag_123\n      jumpi\n        /* \"#utility.yul\":5128:5132   */\n      0x7f\n        /* \"#utility.yul\":5120:5126   */\n      dup3\n        /* \"#utility.yul\":5116:5133   */\n      and\n        /* \"#utility.yul\":5106:5133   */\n      swap2\n      pop\n        /* \"#utility.yul\":5062:5143   */\n    tag_123:\n        /* \"#utility.yul\":5190:5192   */\n      0x20\n        /* \"#utility.yul\":5182:5188   */\n      dup3\n        /* \"#utility.yul\":5179:5193   */\n      lt\n        /* \"#utility.yul\":5159:5177   */\n      dup2\n        /* \"#utility.yul\":5156:5194   */\n      sub\n        /* \"#utility.yul\":5153:5237   */\n      tag_124\n      jumpi\n        /* \"#utility.yul\":5209:5227   */\n      tag_125\n      tag_50\n      jump\t// in\n    tag_125:\n        /* \"#utility.yul\":5153:5237   */\n    tag_124:\n        /* \"#utility.yul\":4974:5243   */\n      pop\n        /* \"#utility.yul\":4923:5243   */\n      swap2\n      swap1\n      pop\n      jump\t// out\n        /* \"#utility.yul\":5249:5390   */\n    tag_51:\n        /* \"#utility.yul\":5298:5302   */\n      0x00\n        /* \"#utility.yul\":5321:5324   */\n      dup2\n        /* \"#utility.yul\":5313:5324   */\n      swap1\n      pop\n        /* \"#utility.yul\":5344:5347   */\n      dup2\n        /* \"#utility.yul\":5341:5342   */\n      0x00\n        /* \"#utility.yul\":5334:5348   */\n      mstore\n        /* \"#utility.yul\":5378:5382   */\n      0x20\n        /* \"#utility.yul\":5375:5376   */\n      0x00\n        /* \"#utility.yul\":5365:5383   */\n      keccak256\n        /* \"#utility.yul\":5357:5383   */\n      swap1\n      pop\n        /* \"#utility.yul\":5249:5390   */\n      swap2\n      swap1\n      pop\n      jump\t// out\n        /* \"#utility.yul\":5396:5489   */\n    tag_52:\n        /* \"#utility.yul\":5433:5439   */\n      0x00\n        /* \"#utility.yul\":5480:5482   */\n      0x20\n        /* \"#utility.yul\":5475:5477   */\n      0x1f\n        /* \"#utility.yul\":5468:5473   */\n      dup4\n        /* \"#utility.yul\":5464:5478   */\n      add\n        /* \"#utility.yul\":5460:5483   */\n      div\n        /* \"#utility.yul\":5450:5483   */\n      swap1\n      pop\n        /* \"#utility.yul\":5396:5489   */\n      swap2\n      swap1\n      pop\n      jump\t// out\n        /* \"#utility.yul\":5495:5602   */\n    tag_53:\n        /* \"#utility.yul\":5539:5547   */\n      0x00\n        /* \"#utility.yul\":5589:5594   */\n      dup3\n        /* \"#utility.yul\":5583:5587   */\n      dup3\n        /* \"#utility.yul\":5579:5595   */\n      shl\n        /* \"#utility.yul\":5558:5595   */\n      swap1\n      pop\n        /* \"#utility.yul\":5495:5602   */\n      swap3\n      swap2\n      pop\n      pop\n      jump\t// out\n        /* \"#utility.yul\":5608:6001   */\n    tag_54:\n        /* \"#utility.yul\":5677:5683   */\n      0x00\n        /* \"#utility.yul\":5727:5728   */\n      0x08\n        /* \"#utility.yul\":5715:5725   */\n      dup4\n        /* \"#utility.yul\":5711:5729   */\n      mul\n        /* \"#utility.yul\":5750:5847   */\n      tag_130\n        /* \"#utility.yul\":5780:5846   */\n      0xffffffffffffffffffffffffffffffffffffffffffffffffffffffffffffffff\n        /* \"#utility.yul\":5769:5778   */\n      dup3\n        /* \"#utility.yul\":5750:5847   */\n      tag_53\n      jump\t// in\n    tag_130:\n        /* \"#utility.yul\":5868:5907   */\n      tag_131\n        /* \"#utility.yul\":5898:5906   */\n      dup7\n        /* \"#utility.yul\":5887:5896   */\n      dup4\n        /* \"#utility.yul\":5868:5907   */\n      tag_53\n      jump\t// in\n    tag_131:\n        /* \"#utility.yul\":5856:5907   */\n      swap6\n      pop\n        /* \"#utility.yul\":5940:5944   */\n      dup1\n        /* \"#utility.yul\":5936:5945   */\n      not\n        /* \"#utility.yul\":5929:5934   */\n      dup5\n        /* \"#utility.yul\":5925:5946   */\n      and\n        /* \"#utility.yul\":5916:5946   */\n      swap4\n      pop\n        /* \"#utility.yul\":5989:5993   */\n      dup1\n        /* \"#utility.yul\":5979:5987   */\n      dup7\n        /* \"#utility.yul\":5975:5994   */\n      and\n        /* \"#utility.yul\":5968:5973   */\n      dup5\n        /* \"#utility.yul\":5965:5995   */\n      or\n        /* \"#utility.yul\":5955:5995   */\n      swap3\n      pop\n        /* \"#utility.yul\":5684:6001   */\n      pop\n      pop\n        /* \"#utility.yul\":5608:6001   */\n      swap4\n      swap3\n      pop\n      pop\n      pop\n      jump\t// out\n        /* \"#utility.yul\":6007:6067   */\n    tag_55:\n        /* \"#utility.yul\":6035:6038   */\n      0x00\n        /* \"#utility.yul\":6056:6061   */\n      dup2\n        /* \"#utility.yul\":6049:6061   */\n      swap1\n      pop\n        /* \"#utility.yul\":6007:6067   */\n      swap2\n      swap1\n      pop\n      jump\t// out\n        /* \"#utility.yul\":6073:6215   */\n    tag_56:\n        /* \"#utility.yul\":6123:6132   */\n      0x00\n        /* \"#utility.yul\":6156:6209   */\n      tag_134\n        /* \"#utility.yul\":6174:6208   */\n      tag_135\n        /* \"#utility.yul\":6183:6207   */\n      tag_136\n        /* \"#utility.yul\":6201:6206   */\n      dup5\n        /* \"#utility.yul\":6183:6207   */\n      tag_48\n      jump\t// in\n    tag_136:\n        /* \"#utility.yul\":6174:6208   */\n      tag_55\n      jump\t// in\n    tag_135:\n        /* \"#utility.yul\":6156:6209   */\n      tag_48\n      jump\t// in\n    tag_134:\n        /* \"#utility.yul\":6143:6209   */\n      swap1\n      pop\n        /* \"#utility.yul\":6073:6215   */\n      swap2\n      swap1\n      pop\n      jump\t// out\n        /* \"#utility.yul\":6221:6296   */\n    tag_57:\n        /* \"#utility.yul\":6264:6267   */\n      0x00\n        /* \"#utility.yul\":6285:6290   */\n      dup2\n        /* \"#utility.yul\":6278:6290   */\n      swap1\n      pop\n        /* \"#utility.yul\":6221:6296   */\n      swap2\n      swap1\n      pop\n      jump\t// out\n        /* \"#utility.yul\":6302:6571   */\n    tag_58:\n        /* \"#utility.yul\":6412:6451   */\n      tag_139\n        /* \"#utility.yul\":6443:6450   */\n      dup4\n        /* \"#utility.yul\":6412:6451   */\n      tag_56\n      jump\t// in\n    tag_139:\n        /* \"#utility.yul\":6473:6564   */\n      tag_140\n        /* \"#utility.yul\":6522:6563   */\n      tag_141\n        /* \"#utility.yul\":6546:6562   */\n      dup3\n        /* \"#utility.yul\":6522:6563   */\n      tag_57\n      jump\t// in\n    tag_141:\n        /* \"#utility.yul\":6514:6520   */\n      dup5\n        /* \"#utility.yul\":6507:6511   */\n      dup5\n        /* \"#utility.yul\":6501:6512   */\n      sload\n        /* \"#utility.yul\":6473:6564   */\n      tag_54\n      jump\t// in\n    tag_140:\n        /* \"#utility.yul\":6467:6471   */\n      dup3\n        /* \"#utility.yul\":6460:6565   */\n      sstore\n        /* \"#utility.yul\":6378:6571   */\n      pop\n        /* \"#utility.yul\":6302:6571   */\n      pop\n      pop\n      pop\n      jump\t// out\n        /* \"#utility.yul\":6577:6650   */\n    tag_59:\n        /* \"#utility.yul\":6622:6625   */\n      0x00\n        /* \"#utility.yul\":6577:6650   */\n      swap1\n      jump\t// out\n        /* \"#utility.yul\":6656:6845   */\n    tag_60:\n        /* \"#utility.yul\":6733:6765   */\n      tag_144\n      tag_59\n      jump\t// in\n    tag_144:\n        /* \"#utility.yul\":6774:6839   */\n      tag_145\n        /* \"#utility.yul\":6832:6838   */\n      dup2\n        /* \"#utility.yul\":6824:6830   */\n      dup5\n        /* \"#utility.yul\":6818:6822   */\n      dup5\n        /* \"#utility.yul\":6774:6839   */\n      tag_58\n      jump\t// in\n    tag_145:\n        /* \"#utility.yul\":6709:6845   */\n      pop\n        /* \"#utility.yul\":6656:6845   */\n      pop\n      pop\n      jump\t// out\n        /* \"#utility.yul\":6851:7037   */\n    tag_61:\n        /* \"#utility.yul\":6911:7031   */\n    tag_147:\n        /* \"#utility.yul\":6928:6931   */\n      dup2\n        /* \"#utility.yul\":6921:6926   */\n      dup2\n        /* \"#utility.yul\":6918:6932   */\n      lt\n        /* \"#utility.yul\":6911:7031   */\n      iszero\n      tag_149\n      jumpi\n        /* \"#utility.yul\":6982:7021   */\n      tag_150\n        /* \"#utility.yul\":7019:7020   */\n      0x00\n        /* \"#utility.yul\":7012:7017   */\n      dup3\n        /* \"#utility.yul\":6982:7021   */\n      tag_60\n      jump\t// in\n    tag_150:\n        /* \"#utility.yul\":6955:6956   */\n      0x01\n        /* \"#utility.yul\":6948:6953   */\n      dup2\n        /* \"#utility.yul\":6944:6957   */\n      add\n        /* \"#utility.yul\":6935:6957   */\n      swap1\n      pop\n        /* \"#utility.yul\":6911:7031   */\n      jump(tag_147)\n    tag_149:\n        /* \"#utility.yul\":6851:7037   */\n      pop\n      pop\n      jump\t// out\n        /* \"#utility.yul\":7043:7586   */\n    tag_62:\n        /* \"#utility.yul\":7144:7146   */\n      0x1f\n        /* \"#utility.yul\":7139:7142   */\n      dup3\n        /* \"#utility.yul\":7136:7147   */\n      gt\n        /* \"#utility.yul\":7133:7579   */\n      iszero\n      tag_152\n      jumpi\n        /* \"#utility.yul\":7178:7216   */\n      tag_153\n        /* \"#utility.yul\":7210:7215   */\n      dup2\n        /* \"#utility.yul\":7178:7216   */\n      tag_51\n      jump\t// in\n    tag_153:\n        /* \"#utility.yul\":7262:7291   */\n      tag_154\n        /* \"#utility.yul\":7280:7290   */\n      dup5\n        /* \"#utility.yul\":7262:7291   */\n      tag_52\n      jump\t// in\n    tag_154:\n        /* \"#utility.yul\":7252:7260   */\n      dup2\n        /* \"#utility.yul\":7248:7292   */\n      add\n        /* \"#utility.yul\":7445:7447   */\n      0x20\n        /* \"#utility.yul\":7433:7443   */\n      dup6\n        /* \"#utility.yul\":7430:7448   */\n      lt\n        /* \"#utility.yul\":7427:7476   */\n      iszero\n      tag_155\n      jumpi\n        /* \"#utility.yul\":7466:7474   */\n      dup2\n        /* \"#utility.yul\":7451:7474   */\n      swap1\n      pop\n        /* \"#utility.yul\":7427:7476   */\n    tag_155:\n        /* \"#utility.yul\":7489:7569   */\n      tag_156\n        /* \"#utility.yul\":7545:7567   */\n      tag_157\n        /* \"#utility.yul\":7563:7566   */\n      dup6\n        /* \"#utility.yul\":7545:7567   */\n      tag_52\n      jump\t// in\n    tag_157:\n        /* \"#utility.yul\":7535:7543   */\n      dup4\n        /* \"#utility.yul\":7531:7568   */\n      add\n        /* \"#utility.yul\":7518:7529   */\n      dup3\n        /* \"#utility.yul\":7489:7569   */\n      tag_61\n      jump\t// in\n    tag_156:\n        /* \"#utility.yul\":7148:7579   */\n      pop\n      pop\n        /* \"#utility.yul\":7133:7579   */\n    tag_152:\n        /* \"#utility.yul\":7043:7586   */\n      pop\n      pop\n      pop\n      jump\t// out\n        /* \"#utility.yul\":7592:7709   */\n    tag_63:\n        /* \"#utility.yul\":7646:7654   */\n      0x00\n        /* \"#utility.yul\":7696:7701   */\n      dup3\n        /* \"#utility.yul\":7690:7694   */\n      dup3\n        /* \"#utility.yul\":7686:7702   */\n      shr\n        /* \"#utility.yul\":7665:7702   */\n      swap1\n      pop\n        /* \"#utility.yul\":7592:7709   */\n      swap3\n      swap2\n      pop\n      pop\n      jump\t// out\n        /* \"#utility.yul\":7715:7884   */\n    tag_64:\n        /* \"#utility.yul\":7759:7765   */\n      0x00\n        /* \"#utility.yul\":7792:7843   */\n      tag_160\n        /* \"#utility.yul\":7840:7841   */\n      0x00\n        /* \"#utility.yul\":7836:7842   */\n      not\n        /* \"#utility.yul\":7828:7833   */\n      dup5\n        /* \"#utility.yul\":7825:7826   */\n      0x08\n        /* \"#utility.yul\":7821:7834   */\n      mul\n        /* \"#utility.yul\":7792:7843   */\n      tag_63\n      jump\t// in\n    tag_160:\n        /* \"#utility.yul\":7788:7844   */\n      not\n        /* \"#utility.yul\":7873:7877   */\n      dup1\n        /* \"#utility.yul\":7867:7871   */\n      dup4\n        /* \"#utility.yul\":7863:7878   */\n      and\n        /* \"#utility.yul\":7853:7878   */\n      swap2\n      pop\n        /* \"#utility.yul\":7766:7884   */\n      pop\n        /* \"#utility.yul\":7715:7884   */\n      swap3\n      swap2\n      pop\n      pop\n      jump\t// out\n        /* \"#utility.yul\":7889:8184   */\n    tag_65:\n        /* \"#utility.yul\":7965:7969   */\n      0x00\n        /* \"#utility.yul\":8111:8140   */\n      tag_162\n        /* \"#utility.yul\":8136:8139   */\n      dup4\n        /* \"#utility.yul\":8130:8134   */\n      dup4\n        /* \"#utility.yul\":8111:8140   */\n      tag_64\n      jump\t// in\n    tag_162:\n        /* \"#utility.yul\":8103:8140   */\n      swap2\n      pop\n        /* \"#utility.yul\":8173:8176   */\n      dup3\n        /* \"#utility.yul\":8170:8171   */\n      0x02\n        /* \"#utility.yul\":8166:8177   */\n      mul\n        /* \"#utility.yul\":8160:8164   */\n      dup3\n        /* \"#utility.yul\":8157:8178   */\n      or\n        /* \"#utility.yul\":8149:8178   */\n      swap1\n      pop\n        /* \"#utility.yul\":7889:8184   */\n      swap3\n      swap2\n      pop\n      pop\n      jump\t// out\n        /* \"#utility.yul\":8189:9584   */\n    tag_27:\n        /* \"#utility.yul\":8306:8343   */\n      tag_164\n        /* \"#utility.yul\":8339:8342   */\n      dup3\n        /* \"#utility.yul\":8306:8343   */\n      tag_31\n      jump\t// in\n    tag_164:\n        /* \"#utility.yul\":8408:8426   */\n      0xffffffffffffffff\n        /* \"#utility.yul\":8400:8406   */\n      dup2\n        /* \"#utility.yul\":8397:8427   */\n      gt\n        /* \"#utility.yul\":8394:8450   */\n      iszero\n      tag_165\n      jumpi\n        /* \"#utility.yul\":8430:8448   */\n      tag_166\n      tag_41\n      jump\t// in\n    tag_166:\n        /* \"#utility.yul\":8394:8450   */\n    tag_165:\n        /* \"#utility.yul\":8474:8512   */\n      tag_167\n        /* \"#utility.yul\":8506:8510   */\n      dup3\n        /* \"#utility.yul\":8500:8511   */\n      sload\n        /* \"#utility.yul\":8474:8512   */\n      tag_20\n      jump\t// in\n    tag_167:\n        /* \"#utility.yul\":8559:8626   */\n      tag_168\n        /* \"#utility.yul\":8619:8625   */\n      dup3\n        /* \"#utility.yul\":8611:8617   */\n      dup3\n        /* \"#utility.yul\":8605:8609   */\n      dup6\n        /* \"#utility.yul\":8559:8626   */\n      tag_62\n      jump\t// in\n    tag_168:\n        /* \"#utility.yul\":8653:8654   */\n      0x00\n        /* \"#utility.yul\":8677:8681   */\n      0x20\n        /* \"#utility.yul\":8664:8681   */\n      swap1\n      pop\n        /* \"#utility.yul\":8709:8711   */\n      0x1f\n        /* \"#utility.yul\":8701:8707   */\n      dup4\n        /* \"#utility.yul\":8698:8712   */\n      gt\n        /* \"#utility.yul\":8726:8727   */\n      0x01\n        /* \"#utility.yul\":8721:9339   */\n      dup2\n      eq\n      tag_170\n      jumpi\n        /* \"#utility.yul\":9383:9384   */\n      0x00\n        /* \"#utility.yul\":9400:9406   */\n      dup5\n        /* \"#utility.yul\":9397:9474   */\n      iszero\n      tag_171\n      jumpi\n        /* \"#utility.yul\":9449:9458   */\n      dup3\n        /* \"#utility.yul\":9444:9447   */\n      dup8\n        /* \"#utility.yul\":9440:9459   */\n      add\n        /* \"#utility.yul\":9434:9460   */\n      mload\n        /* \"#utility.yul\":9425:9460   */\n      swap1\n      pop\n        /* \"#utility.yul\":9397:9474   */\n    tag_171:\n        /* \"#utility.yul\":9500:9567   */\n      tag_172\n        /* \"#utility.yul\":9560:9566   */\n      dup6\n        /* \"#utility.yul\":9553:9558   */\n      dup3\n        /* \"#utility.yul\":9500:9567   */\n      tag_65\n      jump\t// in\n    tag_172:\n        /* \"#utility.yul\":9494:9498   */\n      dup7\n        /* \"#utility.yul\":9487:9568   */\n      sstore\n        /* \"#utility.yul\":9356:9578   */\n      pop\n        /* \"#utility.yul\":8691:9578   */\n      jump(tag_169)\n        /* \"#utility.yul\":8721:9339   */\n    tag_170:\n        /* \"#utility.yul\":8773:8777   */\n      0x1f\n        /* \"#utility.yul\":8769:8778   */\n      not\n        /* \"#utility.yul\":8761:8767   */\n      dup5\n        /* \"#utility.yul\":8757:8779   */\n      and\n        /* \"#utility.yul\":8807:8844   */\n      tag_173\n        /* \"#utility.yul\":8839:8843   */\n      dup7\n        /* \"#utility.yul\":8807:8844   */\n      tag_51\n      jump\t// in\n    tag_173:\n        /* \"#utility.yul\":8866:8867   */\n      0x00\n        /* \"#utility.yul\":8880:9088   */\n    tag_174:\n        /* \"#utility.yul\":8894:8901   */\n      dup3\n        /* \"#utility.yul\":8891:8892   */\n      dup2\n        /* \"#utility.yul\":8888:8902   */\n      lt\n        /* \"#utility.yul\":8880:9088   */\n      iszero\n      tag_176\n      jumpi\n        /* \"#utility.yul\":8973:8982   */\n      dup5\n        /* \"#utility.yul\":8968:8971   */\n      dup10\n        /* \"#utility.yul\":8964:8983   */\n      add\n        /* \"#utility.yul\":8958:8984   */\n      mload\n        /* \"#utility.yul\":8950:8956   */\n      dup3\n        /* \"#utility.yul\":8943:8985   */\n      sstore\n        /* \"#utility.yul\":9024:9025   */\n      0x01\n        /* \"#utility.yul\":9016:9022   */\n      dup3\n        /* \"#utility.yul\":9012:9026   */\n      add\n        /* \"#utility.yul\":9002:9026   */\n      swap2\n      pop\n        /* \"#utility.yul\":9071:9073   */\n      0x20\n        /* \"#utility.yul\":9060:9069   */\n      dup6\n        /* \"#utility.yul\":9056:9074   */\n      add\n        /* \"#utility.yul\":9043:9074   */\n      swap5\n      pop\n        /* \"#utility.yul\":8917:8921   */\n      0x20\n        /* \"#utility.yul\":8914:8915   */\n      dup2\n        /* \"#utility.yul\":8910:8922   */\n      add\n        /* \"#utility.yul\":8905:8922   */\n      swap1\n      pop\n        /* \"#utility.yul\":8880:9088   */\n      jump(tag_174)\n    tag_176:\n        /* \"#utility.yul\":9116:9122   */\n      dup7\n        /* \"#utility.yul\":9107:9114   */\n      dup4\n        /* \"#utility.yul\":9104:9123   */\n      lt\n        /* \"#utility.yul\":9101:9280   */\n      iszero\n      tag_177\n      jumpi\n        /* \"#utility.yul\":9174:9183   */\n      dup5\n        /* \"#utility.yul\":9169:9172   */\n      dup10\n        /* \"#utility.yul\":9165:9184   */\n      add\n        /* \"#utility.yul\":9159:9185   */\n      mload\n        /* \"#utility.yul\":9217:9265   */\n      tag_178\n        /* \"#utility.yul\":9259:9263   */\n      0x1f\n        /* \"#utility.yul\":9251:9257   */\n      dup10\n        /* \"#utility.yul\":9247:9264   */\n      and\n        /* \"#utility.yul\":9236:9245   */\n      dup3\n        /* \"#utility.yul\":9217:9265   */\n      tag_64\n      jump\t// in\n    tag_178:\n        /* \"#utility.yul\":9209:9215   */\n      dup4\n        /* \"#utility.yul\":9202:9266   */\n      sstore\n        /* \"#utility.yul\":9124:9280   */\n      pop\n        /* \"#utility.yul\":9101:9280   */\n    tag_177:\n        /* \"#utility.yul\":9326:9327   */\n      0x01\n        /* \"#utility.yul\":9322:9323   */\n      0x02\n        /* \"#utility.yul\":9314:9320   */\n      dup9\n        /* \"#utility.yul\":9310:9324   */\n      mul\n        /* \"#utility.yul\":9306:9328   */\n      add\n        /* \"#utility.yul\":9300:9304   */\n      dup9\n        /* \"#utility.yul\":9293:9329   */\n      sstore\n        /* \"#utility.yul\":8728:9339   */\n      pop\n      pop\n      pop\n        /* \"#utility.yul\":8691:9578   */\n    tag_169:\n      pop\n        /* \"#utility.yul\":8281:9584   */\n      pop\n      pop\n      pop\n        /* \"#utility.yul\":8189:9584   */\n      pop\n      pop\n      jump\t// out\n        /* \"#utility.yul\":9590:9770   */\n    tag_66:\n        /* \"#utility.yul\":9638:9715   */\n      0x4e487b7100000000000000000000000000000000000000000000000000000000\n        /* \"#utility.yul\":9635:9636   */\n      0x00\n        /* \"#utility.yul\":9628:9716   */\n      mstore\n        /* \"#utility.yul\":9735:9739   */\n      0x11\n        /* \"#utility.yul\":9732:9733   */\n      0x04\n        /* \"#utility.yul\":9725:9740   */\n      mstore\n        /* \"#utility.yul\":9759:9763   */\n      0x24\n        /* \"#utility.yul\":9756:9757   */\n      0x00\n        /* \"#utility.yul\":9749:9764   */\n      revert\n        /* \"#utility.yul\":9776:10186   */\n    tag_30:\n        /* \"#utility.yul\":9816:9823   */\n      0x00\n        /* \"#utility.yul\":9839:9859   */\n      tag_181\n        /* \"#utility.yul\":9857:9858   */\n      dup3\n        /* \"#utility.yul\":9839:9859   */\n      tag_48\n      jump\t// in\n    tag_181:\n        /* \"#utility.yul\":9834:9859   */\n      swap2\n      pop\n        /* \"#utility.yul\":9873:9893   */\n      tag_182\n        /* \"#utility.yul\":9891:9892   */\n      dup4\n        /* \"#utility.yul\":9873:9893   */\n      tag_48\n      jump\t// in\n    tag_182:\n        /* \"#utility.yul\":9868:9893   */\n      swap3\n      pop\n        /* \"#utility.yul\":9928:9929   */\n      dup3\n        /* \"#utility.yul\":9925:9926   */\n      dup3\n        /* \"#utility.yul\":9921:9930   */\n      mul\n        /* \"#utility.yul\":9950:9980   */\n      tag_183\n        /* \"#utility.yul\":9968:9979   */\n      dup2\n        /* \"#utility.yul\":9950:9980   */\n      tag_48\n      jump\t// in\n    tag_183:\n        /* \"#utility.yul\":9939:9980   */\n      swap2\n      pop\n        /* \"#utility.yul\":10129:10130   */\n      dup3\n        /* \"#utility.yul\":10120:10127   */\n      dup3\n        /* \"#utility.yul\":10116:10131   */\n      div\n        /* \"#utility.yul\":10113:10114   */\n      dup5\n        /* \"#utility.yul\":10110:10132   */\n      eq\n        /* \"#utility.yul\":10090:10091   */\n      dup4\n        /* \"#utility.yul\":10083:10092   */\n      iszero\n        /* \"#utility.yul\":10063:10146   */\n      or\n        /* \"#utility.yul\":10040:10179   */\n      tag_184\n      jumpi\n        /* \"#utility.yul\":10159:10177   */\n      tag_185\n      tag_66\n      jump\t// in\n    tag_185:\n        /* \"#utility.yul\":10040:10179   */\n    tag_184:\n        /* \"#utility.yul\":9824:10186   */\n      pop\n        /* \"#utility.yul\":9776:10186   */\n      swap3\n      swap2\n      pop\n      pop\n      jump\t// out\n\n    auxdata: 0xa2646970667358221220ef5693b2aca0ab8f8755efdb7561251db27681ad67430bdbedcc152b0cfd61ae64736f6c63430008120033\n}\n",
				"bytecode": {
					"linkReferences": {},
					"object": "60806040523480156200001157600080fd5b5060405162000d1a38038062000d1a833981810160405281019062000037919062000226565b8160009081620000489190620004cd565b50806001819055505050620005b4565b6000604051905090565b600080fd5b600080fd5b600080fd5b600080fd5b6000601f19601f8301169050919050565b7f4e487b7100000000000000000000000000000000000000000000000000000000600052604160045260246000fd5b620000c18262000076565b810181811067ffffffffffffffff82111715620000e357620000e262000087565b5b80604052505050565b6000620000f862000058565b9050620001068282620000b6565b919050565b600067ffffffffffffffff82111562000129576200012862000087565b5b620001348262000076565b9050602081019050919050565b60005b838110156200016157808201518184015260208101905062000144565b60008484015250505050565b6000620001846200017e846200010b565b620000ec565b905082815260208101848484011115620001a357620001a262000071565b5b620001b084828562000141565b509392505050565b600082601f830112620001d057620001cf6200006c565b5b8151620001e28482602086016200016d565b91505092915050565b6000819050919050565b6200020081620001eb565b81146200020c57600080fd5b50565b6000815190506200022081620001f5565b92915050565b6000806040838503121562000240576200023f62000062565b5b600083015167ffffffffffffffff81111562000261576200026062000067565b5b6200026f85828601620001b8565b925050602062000282858286016200020f565b9150509250929050565b600081519050919050565b7f4e487b7100000000000000000000000000000000000000000000000000000000600052602260045260246000fd5b60006002820490506001821680620002df57607f821691505b602082108103620002f557620002f462000297565b5b50919050565b60008190508160005260206000209050919050565b60006020601f8301049050919050565b600082821b905092915050565b6000600883026200035f7fffffffffffffffffffffffffffffffffffffffffffffffffffffffffffffffff8262000320565b6200036b868362000320565b95508019841693508086168417925050509392505050565b6000819050919050565b6000620003ae620003a8620003a284620001eb565b62000383565b620001eb565b9050919050565b6000819050919050565b620003ca836200038d565b620003e2620003d982620003b5565b8484546200032d565b825550505050565b600090565b620003f9620003ea565b62000406818484620003bf565b505050565b5b818110156200042e5762000422600082620003ef565b6001810190506200040c565b5050565b601f8211156200047d576200044781620002fb565b620004528462000310565b8101602085101562000462578190505b6200047a620004718562000310565b8301826200040b565b50505b505050565b600082821c905092915050565b6000620004a26000198460080262000482565b1980831691505092915050565b6000620004bd83836200048f565b9150826002028217905092915050565b620004d8826200028c565b67ffffffffffffffff811115620004f457620004f362000087565b5b620005008254620002c6565b6200050d82828562000432565b600060209050601f83116001811462000545576000841562000530578287015190505b6200053c8582620004af565b865550620005ac565b601f1984166200055586620002fb565b60005b828110156200057f5784890151825560018201915060208501945060208101905062000558565b868310156200059f57848901516200059b601f8916826200048f565b8355505b6001600288020188555050505b505050505050565b61075680620005c46000396000f3fe608060405234801561001057600080fd5b50600436106100415760003560e01c806312958f1c146100465780632b5914fe146100645780637cae3d4d14610080575b600080fd5b61004e61009e565b60405161005b91906101e9565b60405180910390f35b61007e60048036038101906100799190610354565b610130565b005b610088610143565b60405161009591906103b6565b60405180910390f35b6060600080546100ad90610400565b80601f01602080910402602001604051908101604052809291908181526020018280546100d990610400565b80156101265780601f106100fb57610100808354040283529160200191610126565b820191906000526020600020905b81548152906001019060200180831161010957829003601f168201915b5050505050905090565b806000908161013f91906105dd565b5050565b6000600260015461015491906106de565b905090565b600081519050919050565b600082825260208201905092915050565b60005b83811015610193578082015181840152602081019050610178565b60008484015250505050565b6000601f19601f8301169050919050565b60006101bb82610159565b6101c58185610164565b93506101d5818560208601610175565b6101de8161019f565b840191505092915050565b6000602082019050818103600083015261020381846101b0565b905092915050565b6000604051905090565b600080fd5b600080fd5b600080fd5b600080fd5b7f4e487b7100000000000000000000000000000000000000000000000000000000600052604160045260246000fd5b6102618261019f565b810181811067ffffffffffffffff821117156102805761027f610229565b5b80604052505050565b600061029361020b565b905061029f8282610258565b919050565b600067ffffffffffffffff8211156102bf576102be610229565b5b6102c88261019f565b9050602081019050919050565b82818337600083830152505050565b60006102f76102f2846102a4565b610289565b90508281526020810184848401111561031357610312610224565b5b61031e8482856102d5565b509392505050565b600082601f83011261033b5761033a61021f565b5b813561034b8482602086016102e4565b91505092915050565b60006020828403121561036a57610369610215565b5b600082013567ffffffffffffffff8111156103885761038761021a565b5b61039484828501610326565b91505092915050565b6000819050919050565b6103b08161039d565b82525050565b60006020820190506103cb60008301846103a7565b92915050565b7f4e487b7100000000000000000000000000000000000000000000000000000000600052602260045260246000fd5b6000600282049050600182168061041857607f821691505b60208210810361042b5761042a6103d1565b5b50919050565b60008190508160005260206000209050919050565b60006020601f8301049050919050565b600082821b905092915050565b6000600883026104937fffffffffffffffffffffffffffffffffffffffffffffffffffffffffffffffff82610456565b61049d8683610456565b95508019841693508086168417925050509392505050565b6000819050919050565b60006104da6104d56104d08461039d565b6104b5565b61039d565b9050919050565b6000819050919050565b6104f4836104bf565b610508610500826104e1565b848454610463565b825550505050565b600090565b61051d610510565b6105288184846104eb565b505050565b5b8181101561054c57610541600082610515565b60018101905061052e565b5050565b601f8211156105915761056281610431565b61056b84610446565b8101602085101561057a578190505b61058e61058685610446565b83018261052d565b50505b505050565b600082821c905092915050565b60006105b460001984600802610596565b1980831691505092915050565b60006105cd83836105a3565b9150826002028217905092915050565b6105e682610159565b67ffffffffffffffff8111156105ff576105fe610229565b5b6106098254610400565b610614828285610550565b600060209050601f8311600181146106475760008415610635578287015190505b61063f85826105c1565b8655506106a7565b601f19841661065586610431565b60005b8281101561067d57848901518255600182019150602085019450602081019050610658565b8683101561069a5784890151610696601f8916826105a3565b8355505b6001600288020188555050505b505050505050565b7f4e487b7100000000000000000000000000000000000000000000000000000000600052601160045260246000fd5b60006106e98261039d565b91506106f48361039d565b92508282026107028161039d565b91508282048414831517610719576107186106af565b5b509291505056fea2646970667358221220ef5693b2aca0ab8f8755efdb7561251db27681ad67430bdbedcc152b0cfd61ae64736f6c63430008120033",
					"opcodes": "PUSH1 0x80 PUSH1 0x40 MSTORE CALLVALUE DUP1 ISZERO PUSH3 0x11 JUMPI PUSH1 0x0 DUP1 REVERT JUMPDEST POP PUSH1 0x40 MLOAD PUSH3 0xD1A CODESIZE SUB DUP1 PUSH3 0xD1A DUP4 CODECOPY DUP2 DUP2 ADD PUSH1 0x40 MSTORE DUP2 ADD SWAP1 PUSH3 0x37 SWAP2 SWAP1 PUSH3 0x226 JUMP JUMPDEST DUP2 PUSH1 0x0 SWAP1 DUP2 PUSH3 0x48 SWAP2 SWAP1 PUSH3 0x4CD JUMP JUMPDEST POP DUP1 PUSH1 0x1 DUP2 SWAP1 SSTORE POP POP POP PUSH3 0x5B4 JUMP JUMPDEST PUSH1 0x0 PUSH1 0x40 MLOAD SWAP1 POP SWAP1 JUMP JUMPDEST PUSH1 0x0 DUP1 REVERT JUMPDEST PUSH1 0x0 DUP1 REVERT JUMPDEST PUSH1 0x0 DUP1 REVERT JUMPDEST PUSH1 0x0 DUP1 REVERT JUMPDEST PUSH1 0x0 PUSH1 0x1F NOT PUSH1 0x1F DUP4 ADD AND SWAP1 POP SWAP2 SWAP1 POP JUMP JUMPDEST PUSH32 0x4E487B7100000000000000000000000000000000000000000000000000000000 PUSH1 0x0 MSTORE PUSH1 0x41 PUSH1 0x4 MSTORE PUSH1 0x24 PUSH1 0x0 REVERT JUMPDEST PUSH3 0xC1 DUP3 PUSH3 0x76 JUMP JUMPDEST DUP2 ADD DUP2 DUP2 LT PUSH8 0xFFFFFFFFFFFFFFFF DUP3 GT OR ISZERO PUSH3 0xE3 JUMPI PUSH3 0xE2 PUSH3 0x87 JUMP JUMPDEST JUMPDEST DUP1 PUSH1 0x40 MSTORE POP POP POP JUMP JUMPDEST PUSH1 0x0 PUSH3 0xF8 PUSH3 0x58 JUMP JUMPDEST SWAP1 POP PUSH3 0x106 DUP3 DUP3 PUSH3 0xB6 JUMP JUMPDEST SWAP2 SWAP1 POP JUMP JUMPDEST PUSH1 0x0 PUSH8 0xFFFFFFFFFFFFFFFF DUP3 GT ISZERO PUSH3 0x129 JUMPI PUSH3 0x128 PUSH3 0x87 JUMP JUMPDEST JUMPDEST PUSH3 0x134 DUP3 PUSH3 0x76 JUMP JUMPDEST SWAP1 POP PUSH1 0x20 DUP2 ADD SWAP1 POP SWAP2 SWAP1 POP JUMP JUMPDEST PUSH1 0x0 JUMPDEST DUP4 DUP2 LT ISZERO PUSH3 0x161 JUMPI DUP1 DUP3 ADD MLOAD DUP2 DUP5 ADD MSTORE PUSH1 0x20 DUP2 ADD SWAP1 POP PUSH3 0x144 JUMP JUMPDEST PUSH1 0x0 DUP5 DUP5 ADD MSTORE POP POP POP POP JUMP JUMPDEST PUSH1 0x0 PUSH3 0x184 PUSH3 0x17E DUP5 PUSH3 0x10B JUMP JUMPDEST PUSH3 0xEC JUMP JUMPDEST SWAP1 POP DUP3 DUP2 MSTORE PUSH1 0x20 DUP2 ADD DUP5 DUP5 DUP5 ADD GT ISZERO PUSH3 0x1A3 JUMPI PUSH3 0x1A2 PUSH3 0x71 JUMP JUMPDEST JUMPDEST PUSH3 0x1B0 DUP5 DUP3 DUP6 PUSH3 0x141 JUMP JUMPDEST POP SWAP4 SWAP3 POP POP POP JUMP JUMPDEST PUSH1 0x0 DUP3 PUSH1 0x1F DUP4 ADD SLT PUSH3 0x1D0 JUMPI PUSH3 0x1CF PUSH3 0x6C JUMP JUMPDEST JUMPDEST DUP2 MLOAD PUSH3 0x1E2 DUP5 DUP3 PUSH1 0x20 DUP7 ADD PUSH3 0x16D JUMP JUMPDEST SWAP2 POP POP SWAP3 SWAP2 POP POP JUMP JUMPDEST PUSH1 0x0 DUP2 SWAP1 POP SWAP2 SWAP1 POP JUMP JUMPDEST PUSH3 0x200 DUP2 PUSH3 0x1EB JUMP JUMPDEST DUP2 EQ PUSH3 0x20C JUMPI PUSH1 0x0 DUP1 REVERT JUMPDEST POP JUMP JUMPDEST PUSH1 0x0 DUP2 MLOAD SWAP1 POP PUSH3 0x220 DUP2 PUSH3 0x1F5 JUMP JUMPDEST SWAP3 SWAP2 POP POP JUMP JUMPDEST PUSH1 0x0 DUP1 PUSH1 0x40 DUP4 DUP6 SUB SLT ISZERO PUSH3 0x240 JUMPI PUSH3 0x23F PUSH3 0x62 JUMP JUMPDEST JUMPDEST PUSH1 0x0 DUP4 ADD MLOAD PUSH8 0xFFFFFFFFFFFFFFFF DUP2 GT ISZERO PUSH3 0x261 JUMPI PUSH3 0x260 PUSH3 0x67 JUMP JUMPDEST JUMPDEST PUSH3 0x26F DUP6 DUP3 DUP7 ADD PUSH3 0x1B8 JUMP JUMPDEST SWAP3 POP POP PUSH1 0x20 PUSH3 0x282 DUP6 DUP3 DUP7 ADD PUSH3 0x20F JUMP JUMPDEST SWAP2 POP POP SWAP3 POP SWAP3 SWAP1 POP JUMP JUMPDEST PUSH1 0x0 DUP2 MLOAD SWAP1 POP SWAP2 SWAP1 POP JUMP JUMPDEST PUSH32 0x4E487B7100000000000000000000000000000000000000000000000000000000 PUSH1 0x0 MSTORE PUSH1 0x22 PUSH1 0x4 MSTORE PUSH1 0x24 PUSH1 0x0 REVERT JUMPDEST PUSH1 0x0 PUSH1 0x2 DUP3 DIV SWAP1 POP PUSH1 0x1 DUP3 AND DUP1 PUSH3 0x2DF JUMPI PUSH1 0x7F DUP3 AND SWAP2 POP JUMPDEST PUSH1 0x20 DUP3 LT DUP2 SUB PUSH3 0x2F5 JUMPI PUSH3 0x2F4 PUSH3 0x297 JUMP JUMPDEST JUMPDEST POP SWAP2 SWAP1 POP JUMP JUMPDEST PUSH1 0x0 DUP2 SWAP1 POP DUP2 PUSH1 0x0 MSTORE PUSH1 0x20 PUSH1 0x0 KECCAK256 SWAP1 POP SWAP2 SWAP1 POP JUMP JUMPDEST PUSH1 0x0 PUSH1 0x20 PUSH1 0x1F DUP4 ADD DIV SWAP1 POP SWAP2 SWAP1 POP JUMP JUMPDEST PUSH1 0x0 DUP3 DUP3 SHL SWAP1 POP SWAP3 SWAP2 POP POP JUMP JUMPDEST PUSH1 0x0 PUSH1 0x8 DUP4 MUL PUSH3 0x35F PUSH32 0xFFFFFFFFFFFFFFFFFFFFFFFFFFFFFFFFFFFFFFFFFFFFFFFFFFFFFFFFFFFFFFFF DUP3 PUSH3 0x320 JUMP JUMPDEST PUSH3 0x36B DUP7 DUP4 PUSH3 0x320 JUMP JUMPDEST SWAP6 POP DUP1 NOT DUP5 AND SWAP4 POP DUP1 DUP7 AND DUP5 OR SWAP3 POP POP POP SWAP4 SWAP3 POP POP POP JUMP JUMPDEST PUSH1 0x0 DUP2 SWAP1 POP SWAP2 SWAP1 POP JUMP JUMPDEST PUSH1 0x0 PUSH3 0x3AE PUSH3 0x3A8 PUSH3 0x3A2 DUP5 PUSH3 0x1EB JUMP JUMPDEST PUSH3 0x383 JUMP JUMPDEST PUSH3 0x1EB JUMP JUMPDEST SWAP1 POP SWAP2 SWAP1 POP JUMP JUMPDEST PUSH1 0x0 DUP2 SWAP1 POP SWAP2 SWAP1 POP JUMP JUMPDEST PUSH3 0x3CA DUP4 PUSH3 0x38D JUMP JUMPDEST PUSH3 0x3E2 PUSH3 0x3D9 DUP3 PUSH3 0x3B5 JUMP JUMPDEST DUP5 DUP5 SLOAD PUSH3 0x32D JUMP JUMPDEST DUP3 SSTORE POP POP POP POP JUMP JUMPDEST PUSH1 0x0 SWAP1 JUMP JUMPDEST PUSH3 0x3F9 PUSH3 0x3EA JUMP JUMPDEST PUSH3 0x406 DUP2 DUP5 DUP5 PUSH3 0x3BF JUMP JUMPDEST POP POP POP JUMP JUMPDEST JUMPDEST DUP2 DUP2 LT ISZERO PUSH3 0x42E JUMPI PUSH3 0x422 PUSH1 0x0 DUP3 PUSH3 0x3EF JUMP JUMPDEST PUSH1 0x1 DUP2 ADD SWAP1 POP PUSH3 0x40C JUMP JUMPDEST POP POP JUMP JUMPDEST PUSH1 0x1F DUP3 GT ISZERO PUSH3 0x47D JUMPI PUSH3 0x447 DUP2 PUSH3 0x2FB JUMP JUMPDEST PUSH3 0x452 DUP5 PUSH3 0x310 JUMP JUMPDEST DUP2 ADD PUSH1 0x20 DUP6 LT ISZERO PUSH3 0x462 JUMPI DUP2 SWAP1 POP JUMPDEST PUSH3 0x47A PUSH3 0x471 DUP6 PUSH3 0x310 JUMP JUMPDEST DUP4 ADD DUP3 PUSH3 0x40B JUMP JUMPDEST POP POP JUMPDEST POP POP POP JUMP JUMPDEST PUSH1 0x0 DUP3 DUP3 SHR SWAP1 POP SWAP3 SWAP2 POP POP JUMP JUMPDEST PUSH1 0x0 PUSH3 0x4A2 PUSH1 0x0 NOT DUP5 PUSH1 0x8 MUL PUSH3 0x482 JUMP JUMPDEST NOT DUP1 DUP4 AND SWAP2 POP POP SWAP3 SWAP2 POP POP JUMP JUMPDEST PUSH1 0x0 PUSH3 0x4BD DUP4 DUP4 PUSH3 0x48F JUMP JUMPDEST SWAP2 POP DUP3 PUSH1 0x2 MUL DUP3 OR SWAP1 POP SWAP3 SWAP2 POP POP JUMP JUMPDEST PUSH3 0x4D8 DUP3 PUSH3 0x28C JUMP JUMPDEST PUSH8 0xFFFFFFFFFFFFFFFF DUP2 GT ISZERO PUSH3 0x4F4 JUMPI PUSH3 0x4F3 PUSH3 0x87 JUMP JUMPDEST JUMPDEST PUSH3 0x500 DUP3 SLOAD PUSH3 0x2C6 JUMP JUMPDEST PUSH3 0x50D DUP3 DUP3 DUP6 PUSH3 0x432 JUMP JUMPDEST PUSH1 0x0 PUSH1 0x20 SWAP1 POP PUSH1 0x1F DUP4 GT PUSH1 0x1 DUP2 EQ PUSH3 0x545 JUMPI PUSH1 0x0 DUP5 ISZERO PUSH3 0x530 JUMPI DUP3 DUP8 ADD MLOAD SWAP1 POP JUMPDEST PUSH3 0x53C DUP6 DUP3 PUSH3 0x4AF JUMP JUMPDEST DUP7 SSTORE POP PUSH3 0x5AC JUMP JUMPDEST PUSH1 0x1F NOT DUP5 AND PUSH3 0x555 DUP7 PUSH3 0x2FB JUMP JUMPDEST PUSH1 0x0 JUMPDEST DUP3 DUP2 LT ISZERO PUSH3 0x57F JUMPI DUP5 DUP10 ADD MLOAD DUP3 SSTORE PUSH1 0x1 DUP3 ADD SWAP2 POP PUSH1 0x20 DUP6 ADD SWAP5 POP PUSH1 0x20 DUP2 ADD SWAP1 POP PUSH3 0x558 JUMP JUMPDEST DUP7 DUP4 LT ISZERO PUSH3 0x59F JUMPI DUP5 DUP10 ADD MLOAD PUSH3 0x59B PUSH1 0x1F DUP10 AND DUP3 PUSH3 0x48F JUMP JUMPDEST DUP4 SSTORE POP JUMPDEST PUSH1 0x1 PUSH1 0x2 DUP9 MUL ADD DUP9 SSTORE POP POP POP JUMPDEST POP POP POP POP POP POP JUMP JUMPDEST PUSH2 0x756 DUP1 PUSH3 0x5C4 PUSH1 0x0 CODECOPY PUSH1 0x0 RETURN INVALID PUSH1 0x80 PUSH1 0x40 MSTORE CALLVALUE DUP1 ISZERO PUSH2 0x10 JUMPI PUSH1 0x0 DUP1 REVERT JUMPDEST POP PUSH1 0x4 CALLDATASIZE LT PUSH2 0x41 JUMPI PUSH1 0x0 CALLDATALOAD PUSH1 0xE0 SHR DUP1 PUSH4 0x12958F1C EQ PUSH2 0x46 JUMPI DUP1 PUSH4 0x2B5914FE EQ PUSH2 0x64 JUMPI DUP1 PUSH4 0x7CAE3D4D EQ PUSH2 0x80 JUMPI JUMPDEST PUSH1 0x0 DUP1 REVERT JUMPDEST PUSH2 0x4E PUSH2 0x9E JUMP JUMPDEST PUSH1 0x40 MLOAD PUSH2 0x5B SWAP2 SWAP1 PUSH2 0x1E9 JUMP JUMPDEST PUSH1 0x40 MLOAD DUP1 SWAP2 SUB SWAP1 RETURN JUMPDEST PUSH2 0x7E PUSH1 0x4 DUP1 CALLDATASIZE SUB DUP2 ADD SWAP1 PUSH2 0x79 SWAP2 SWAP1 PUSH2 0x354 JUMP JUMPDEST PUSH2 0x130 JUMP JUMPDEST STOP JUMPDEST PUSH2 0x88 PUSH2 0x143 JUMP JUMPDEST PUSH1 0x40 MLOAD PUSH2 0x95 SWAP2 SWAP1 PUSH2 0x3B6 JUMP JUMPDEST PUSH1 0x40 MLOAD DUP1 SWAP2 SUB SWAP1 RETURN JUMPDEST PUSH1 0x60 PUSH1 0x0 DUP1 SLOAD PUSH2 0xAD SWAP1 PUSH2 0x400 JUMP JUMPDEST DUP1 PUSH1 0x1F ADD PUSH1 0x20 DUP1 SWAP2 DIV MUL PUSH1 0x20 ADD PUSH1 0x40 MLOAD SWAP1 DUP2 ADD PUSH1 0x40 MSTORE DUP1 SWAP3 SWAP2 SWAP1 DUP2 DUP2 MSTORE PUSH1 0x20 ADD DUP3 DUP1 SLOAD PUSH2 0xD9 SWAP1 PUSH2 0x400 JUMP JUMPDEST DUP1 ISZERO PUSH2 0x126 JUMPI DUP1 PUSH1 0x1F LT PUSH2 0xFB JUMPI PUSH2 0x100 DUP1 DUP4 SLOAD DIV MUL DUP4 MSTORE SWAP2 PUSH1 0x20 ADD SWAP2 PUSH2 0x126 JUMP JUMPDEST DUP3 ADD SWAP2 SWAP1 PUSH1 0x0 MSTORE PUSH1 0x20 PUSH1 0x0 KECCAK256 SWAP1 JUMPDEST DUP2 SLOAD DUP2 MSTORE SWAP1 PUSH1 0x1 ADD SWAP1 PUSH1 0x20 ADD DUP1 DUP4 GT PUSH2 0x109 JUMPI DUP3 SWAP1 SUB PUSH1 0x1F AND DUP3 ADD SWAP2 JUMPDEST POP POP POP POP POP SWAP1 POP SWAP1 JUMP JUMPDEST DUP1 PUSH1 0x0 SWAP1 DUP2 PUSH2 0x13F SWAP2 SWAP1 PUSH2 0x5DD JUMP JUMPDEST POP POP JUMP JUMPDEST PUSH1 0x0 PUSH1 0x2 PUSH1 0x1 SLOAD PUSH2 0x154 SWAP2 SWAP1 PUSH2 0x6DE JUMP JUMPDEST SWAP1 POP SWAP1 JUMP JUMPDEST PUSH1 0x0 DUP2 MLOAD SWAP1 POP SWAP2 SWAP1 POP JUMP JUMPDEST PUSH1 0x0 DUP3 DUP3 MSTORE PUSH1 0x20 DUP3 ADD SWAP1 POP SWAP3 SWAP2 POP POP JUMP JUMPDEST PUSH1 0x0 JUMPDEST DUP4 DUP2 LT ISZERO PUSH2 0x193 JUMPI DUP1 DUP3 ADD MLOAD DUP2 DUP5 ADD MSTORE PUSH1 0x20 DUP2 ADD SWAP1 POP PUSH2 0x178 JUMP JUMPDEST PUSH1 0x0 DUP5 DUP5 ADD MSTORE POP POP POP POP JUMP JUMPDEST PUSH1 0x0 PUSH1 0x1F NOT PUSH1 0x1F DUP4 ADD AND SWAP1 POP SWAP2 SWAP1 POP JUMP JUMPDEST PUSH1 0x0 PUSH2 0x1BB DUP3 PUSH2 0x159 JUMP JUMPDEST PUSH2 0x1C5 DUP2 DUP6 PUSH2 0x164 JUMP JUMPDEST SWAP4 POP PUSH2 0x1D5 DUP2 DUP6 PUSH1 0x20 DUP7 ADD PUSH2 0x175 JUMP JUMPDEST PUSH2 0x1DE DUP2 PUSH2 0x19F JUMP JUMPDEST DUP5 ADD SWAP2 POP POP SWAP3 SWAP2 POP POP JUMP JUMPDEST PUSH1 0x0 PUSH1 0x20 DUP3 ADD SWAP1 POP DUP2 DUP2 SUB PUSH1 0x0 DUP4 ADD MSTORE PUSH2 0x203 DUP2 DUP5 PUSH2 0x1B0 JUMP JUMPDEST SWAP1 POP SWAP3 SWAP2 POP POP JUMP JUMPDEST PUSH1 0x0 PUSH1 0x40 MLOAD SWAP1 POP SWAP1 JUMP JUMPDEST PUSH1 0x0 DUP1 REVERT JUMPDEST PUSH1 0x0 DUP1 REVERT JUMPDEST PUSH1 0x0 DUP1 REVERT JUMPDEST PUSH1 0x0 DUP1 REVERT JUMPDEST PUSH32 0x4E487B7100000000000000000000000000000000000000000000000000000000 PUSH1 0x0 MSTORE PUSH1 0x41 PUSH1 0x4 MSTORE PUSH1 0x24 PUSH1 0x0 REVERT JUMPDEST PUSH2 0x261 DUP3 PUSH2 0x19F JUMP JUMPDEST DUP2 ADD DUP2 DUP2 LT PUSH8 0xFFFFFFFFFFFFFFFF DUP3 GT OR ISZERO PUSH2 0x280 JUMPI PUSH2 0x27F PUSH2 0x229 JUMP JUMPDEST JUMPDEST DUP1 PUSH1 0x40 MSTORE POP POP POP JUMP JUMPDEST PUSH1 0x0 PUSH2 0x293 PUSH2 0x20B JUMP JUMPDEST SWAP1 POP PUSH2 0x29F DUP3 DUP3 PUSH2 0x258 JUMP JUMPDEST SWAP2 SWAP1 POP JUMP JUMPDEST PUSH1 0x0 PUSH8 0xFFFFFFFFFFFFFFFF DUP3 GT ISZERO PUSH2 0x2BF JUMPI PUSH2 0x2BE PUSH2 0x229 JUMP JUMPDEST JUMPDEST PUSH2 0x2C8 DUP3 PUSH2 0x19F JUMP JUMPDEST SWAP1 POP PUSH1 0x20 DUP2 ADD SWAP1 POP SWAP2 SWAP1 POP JUMP JUMPDEST DUP3 DUP2 DUP4 CALLDATACOPY PUSH1 0x0 DUP4 DUP4 ADD MSTORE POP POP POP JUMP JUMPDEST PUSH1 0x0 PUSH2 0x2F7 PUSH2 0x2F2 DUP5 PUSH2 0x2A4 JUMP JUMPDEST PUSH2 0x289 JUMP JUMPDEST SWAP1 POP DUP3 DUP2 MSTORE PUSH1 0x20 DUP2 ADD DUP5 DUP5 DUP5 ADD GT ISZERO PUSH2 0x313 JUMPI PUSH2 0x312 PUSH2 0x224 JUMP JUMPDEST JUMPDEST PUSH2 0x31E DUP5 DUP3 DUP6 PUSH2 0x2D5 JUMP JUMPDEST POP SWAP4 SWAP3 POP POP POP JUMP JUMPDEST PUSH1 0x0 DUP3 PUSH1 0x1F DUP4 ADD SLT PUSH2 0x33B JUMPI PUSH2 0x33A PUSH2 0x21F JUMP JUMPDEST JUMPDEST DUP2 CALLDATALOAD PUSH2 0x34B DUP5 DUP3 PUSH1 0x20 DUP7 ADD PUSH2 0x2E4 JUMP JUMPDEST SWAP2 POP POP SWAP3 SWAP2 POP POP JUMP JUMPDEST PUSH1 0x0 PUSH1 0x20 DUP3 DUP5 SUB SLT ISZERO PUSH2 0x36A JUMPI PUSH2 0x369 PUSH2 0x215 JUMP JUMPDEST JUMPDEST PUSH1 0x0 DUP3 ADD CALLDATALOAD PUSH8 0xFFFFFFFFFFFFFFFF DUP2 GT ISZERO PUSH2 0x388 JUMPI PUSH2 0x387 PUSH2 0x21A JUMP JUMPDEST JUMPDEST PUSH2 0x394 DUP5 DUP3 DUP6 ADD PUSH2 0x326 JUMP JUMPDEST SWAP2 POP POP SWAP3 SWAP2 POP POP JUMP JUMPDEST PUSH1 0x0 DUP2 SWAP1 POP SWAP2 SWAP1 POP JUMP JUMPDEST PUSH2 0x3B0 DUP2 PUSH2 0x39D JUMP JUMPDEST DUP3 MSTORE POP POP JUMP JUMPDEST PUSH1 0x0 PUSH1 0x20 DUP3 ADD SWAP1 POP PUSH2 0x3CB PUSH1 0x0 DUP4 ADD DUP5 PUSH2 0x3A7 JUMP JUMPDEST SWAP3 SWAP2 POP POP JUMP JUMPDEST PUSH32 0x4E487B7100000000000000000000000000000000000000000000000000000000 PUSH1 0x0 MSTORE PUSH1 0x22 PUSH1 0x4 MSTORE PUSH1 0x24 PUSH1 0x0 REVERT JUMPDEST PUSH1 0x0 PUSH1 0x2 DUP3 DIV SWAP1 POP PUSH1 0x1 DUP3 AND DUP1 PUSH2 0x418 JUMPI PUSH1 0x7F DUP3 AND SWAP2 POP JUMPDEST PUSH1 0x20 DUP3 LT DUP2 SUB PUSH2 0x42B JUMPI PUSH2 0x42A PUSH2 0x3D1 JUMP JUMPDEST JUMPDEST POP SWAP2 SWAP1 POP JUMP JUMPDEST PUSH1 0x0 DUP2 SWAP1 POP DUP2 PUSH1 0x0 MSTORE PUSH1 0x20 PUSH1 0x0 KECCAK256 SWAP1 POP SWAP2 SWAP1 POP JUMP JUMPDEST PUSH1 0x0 PUSH1 0x20 PUSH1 0x1F DUP4 ADD DIV SWAP1 POP SWAP2 SWAP1 POP JUMP JUMPDEST PUSH1 0x0 DUP3 DUP3 SHL SWAP1 POP SWAP3 SWAP2 POP POP JUMP JUMPDEST PUSH1 0x0 PUSH1 0x8 DUP4 MUL PUSH2 0x493 PUSH32 0xFFFFFFFFFFFFFFFFFFFFFFFFFFFFFFFFFFFFFFFFFFFFFFFFFFFFFFFFFFFFFFFF DUP3 PUSH2 0x456 JUMP JUMPDEST PUSH2 0x49D DUP7 DUP4 PUSH2 0x456 JUMP JUMPDEST SWAP6 POP DUP1 NOT DUP5 AND SWAP4 POP DUP1 DUP7 AND DUP5 OR SWAP3 POP POP POP SWAP4 SWAP3 POP POP POP JUMP JUMPDEST PUSH1 0x0 DUP2 SWAP1 POP SWAP2 SWAP1 POP JUMP JUMPDEST PUSH1 0x0 PUSH2 0x4DA PUSH2 0x4D5 PUSH2 0x4D0 DUP5 PUSH2 0x39D JUMP JUMPDEST PUSH2 0x4B5 JUMP JUMPDEST PUSH2 0x39D JUMP JUMPDEST SWAP1 POP SWAP2 SWAP1 POP JUMP JUMPDEST PUSH1 0x0 DUP2 SWAP1 POP SWAP2 SWAP1 POP JUMP JUMPDEST PUSH2 0x4F4 DUP4 PUSH2 0x4BF JUMP JUMPDEST PUSH2 0x508 PUSH2 0x500 DUP3 PUSH2 0x4E1 JUMP JUMPDEST DUP5 DUP5 SLOAD PUSH2 0x463 JUMP JUMPDEST DUP3 SSTORE POP POP POP POP JUMP JUMPDEST PUSH1 0x0 SWAP1 JUMP JUMPDEST PUSH2 0x51D PUSH2 0x510 JUMP JUMPDEST PUSH2 0x528 DUP2 DUP5 DUP5 PUSH2 0x4EB JUMP JUMPDEST POP POP POP JUMP JUMPDEST JUMPDEST DUP2 DUP2 LT ISZERO PUSH2 0x54C JUMPI PUSH2 0x541 PUSH1 0x0 DUP3 PUSH2 0x515 JUMP JUMPDEST PUSH1 0x1 DUP2 ADD SWAP1 POP PUSH2 0x52E JUMP JUMPDEST POP POP JUMP JUMPDEST PUSH1 0x1F DUP3 GT ISZERO PUSH2 0x591 JUMPI PUSH2 0x562 DUP2 PUSH2 0x431 JUMP JUMPDEST PUSH2 0x56B DUP5 PUSH2 0x446 JUMP JUMPDEST DUP2 ADD PUSH1 0x20 DUP6 LT ISZERO PUSH2 0x57A JUMPI DUP2 SWAP1 POP JUMPDEST PUSH2 0x58E PUSH2 0x586 DUP6 PUSH2 0x446 JUMP JUMPDEST DUP4 ADD DUP3 PUSH2 0x52D JUMP JUMPDEST POP POP JUMPDEST POP POP POP JUMP JUMPDEST PUSH1 0x0 DUP3 DUP3 SHR SWAP1 POP SWAP3 SWAP2 POP POP JUMP JUMPDEST PUSH1 0x0 PUSH2 0x5B4 PUSH1 0x0 NOT DUP5 PUSH1 0x8 MUL PUSH2 0x596 JUMP JUMPDEST NOT DUP1 DUP4 AND SWAP2 POP POP SWAP3 SWAP2 POP POP JUMP JUMPDEST PUSH1 0x0 PUSH2 0x5CD DUP4 DUP4 PUSH2 0x5A3 JUMP JUMPDEST SWAP2 POP DUP3 PUSH1 0x2 MUL DUP3 OR SWAP1 POP SWAP3 SWAP2 POP POP JUMP JUMPDEST PUSH2 0x5E6 DUP3 PUSH2 0x159 JUMP JUMPDEST PUSH8 0xFFFFFFFFFFFFFFFF DUP2 GT ISZERO PUSH2 0x5FF JUMPI PUSH2 0x5FE PUSH2 0x229 JUMP JUMPDEST JUMPDEST PUSH2 0x609 DUP3 SLOAD PUSH2 0x400 JUMP JUMPDEST PUSH2 0x614 DUP3 DUP3 DUP6 PUSH2 0x550 JUMP JUMPDEST PUSH1 0x0 PUSH1 0x20 SWAP1 POP PUSH1 0x1F DUP4 GT PUSH1 0x1 DUP2 EQ PUSH2 0x647 JUMPI PUSH1 0x0 DUP5 ISZERO PUSH2 0x635 JUMPI DUP3 DUP8 ADD MLOAD SWAP1 POP JUMPDEST PUSH2 0x63F DUP6 DUP3 PUSH2 0x5C1 JUMP JUMPDEST DUP7 SSTORE POP PUSH2 0x6A7 JUMP JUMPDEST PUSH1 0x1F NOT DUP5 AND PUSH2 0x655 DUP7 PUSH2 0x431 JUMP JUMPDEST PUSH1 0x0 JUMPDEST DUP3 DUP2 LT ISZERO PUSH2 0x67D JUMPI DUP5 DUP10 ADD MLOAD DUP3 SSTORE PUSH1 0x1 DUP3 ADD SWAP2 POP PUSH1 0x20 DUP6 ADD SWAP5 POP PUSH1 0x20 DUP2 ADD SWAP1 POP PUSH2 0x658 JUMP JUMPDEST DUP7 DUP4 LT ISZERO PUSH2 0x69A JUMPI DUP5 DUP10 ADD MLOAD PUSH2 0x696 PUSH1 0x1F DUP10 AND DUP3 PUSH2 0x5A3 JUMP JUMPDEST DUP4 SSTORE POP JUMPDEST PUSH1 0x1 PUSH1 0x2 DUP9 MUL ADD DUP9 SSTORE POP POP POP JUMPDEST POP POP POP POP POP POP JUMP JUMPDEST PUSH32 0x4E487B7100000000000000000000000000000000000000000000000000000000 PUSH1 0x0 MSTORE PUSH1 0x11 PUSH1 0x4 MSTORE PUSH1 0x24 PUSH1 0x0 REVERT JUMPDEST PUSH1 0x0 PUSH2 0x6E9 DUP3 PUSH2 0x39D JUMP JUMPDEST SWAP2 POP PUSH2 0x6F4 DUP4 PUSH2 0x39D JUMP JUMPDEST SWAP3 POP DUP3 DUP3 MUL PUSH2 0x702 DUP2 PUSH2 0x39D JUMP JUMPDEST SWAP2 POP DUP3 DUP3 DIV DUP5 EQ DUP4 ISZERO OR PUSH2 0x719 JUMPI PUSH2 0x718 PUSH2 0x6AF JUMP JUMPDEST JUMPDEST POP SWAP3 SWAP2 POP POP JUMP INVALID LOG2 PUSH5 0x6970667358 0x22 SLT KECCAK256 0xEF JUMP SWAP4 0xB2 0xAC LOG0 0xAB DUP16 DUP8 SSTORE 0xEF 0xDB PUSH22 0x61251DB27681AD67430BDBEDCC152B0CFD61AE64736F PUSH13 0x63430008120033000000000000 "
				},
				"gasEstimates": {
					"creation": {
						"codeDepositCost": "375600",
						"executionCost": "infinite",
						"totalCost": "infinite"
					},
					"external": {
						"getUserAge()": "infinite",
						"getUserName()": "infinite",
						"setUserName(string)": "infinite"
					}
				},
				"methodIdentifiers": {
					"getUserAge()": "7cae3d4d",
					"getUserName()": "12958f1c",
					"setUserName(string)": "2b5914fe"
				}
			},
			"storageLayout": {
				"storage": [
					{
						"astId": 3,
						"contract": "contracts/demo.sol:FirstWeekAssignment",
						"label": "userName",
						"offset": 0,
						"slot": "0",
						"type": "t_string_storage"
					},
					{
						"astId": 5,
						"contract": "contracts/demo.sol:FirstWeekAssignment",
						"label": "userAge",
						"offset": 0,
						"slot": "1",
						"type": "t_uint256"
					}
				],
				"types": {
					"t_string_storage": {
						"encoding": "bytes",
						"label": "string",
						"numberOfBytes": "32"
					},
					"t_uint256": {
						"encoding": "inplace",
						"label": "uint256",
						"numberOfBytes": "32"
					}
				}
			},
			"userdoc": {
				"kind": "user",
				"methods": {},
				"version": 1
			}
		}
	}
}